:020000040000FA
:0600000009EF32F01200CE
:0600080004EF08F01200F5
:060018000CEF08F01200DD
:0610000009EF32F01200BE
:0610080028EF08F01200C1
:061018009EEF08F012003B
:06102A000300CF6400008A
:1010300000010000800000008264000080010000C8
:101040004D00000080640000F00400000200000079
:10105000DACFE4FFE2CFDAFFE9CFE4FFEACFE4FF43
:10106000F6CFE4FFF7CFE4FFF5CFE4FFF3CFE4FFE3
:10107000F4CFE4FFFACFE4FF00EE00F0140EE80432
:1010800003E3EECFE4FFFBD700EE14F0060EE80416
:1010900003E3EECFE4FFFBD7E652A4A61FD0A4964D
:1010A0000101BC51BF25BF6F000EC021C06FBD51F3
:1010B000C125C16F000EC221C26FB7050FE1C52B5C
:1010C000000EC623B6511A6E1B6A1A50C55D1B501E
:1010D000C65904E3C56BC66B010EB86FF0A003D010
:1010E000F090BAC1B8F1F0A203D0F092BBC1B8F150
:1010F00060EC16F0E55200EE19F0060EE80403E38A
:10110000E5CFEDFFFBD700EE13F0140EE80403E388
:10111000E5CFEDFFFBD7E5CFFAFFE5CFF4FFE5CF55
:10112000F3FFE5CFF5FFE5CFF7FFE5CFF6FFE5CF1E
:10113000EAFFE5CFE9FFE5CFDAFF1100D8CFE4FF02
:10114000E0CFE4FFE46EDACFE4FFE652E552E5CF0C
:10115000DAFFE550E5CFE0FFE5CFD8FF1000D9CFAB
:10116000E6FFE1CFD9FF420EE12634EC15F0000195
:101170006051080A05E0F70A06E1070E606F03D028
:101180000101AD6BAE6B1EEC14F0400EDB6A60C06B
:101190008CFFD9CFE6FFDACFE6FF36D8E552E5522D
:1011A000E76E400EE7CFDBFF070E0001605D09E14F
:1011B000D9CFE6FFDACFE6FF400EDBCFE6FF85D8DA
:1011C00018D0080E605D09E1D9CFE6FFDACFE6FF5F
:1011D000400EDBCFE6FFF6DA0CD00A0E605D0CE1C4
:1011E000D9CFE6FFDACFE6FF400EDBCFE6FF45ECD6
:1011F0000EF0E552E552E5520F01005102E198EC84
:1012000018F076EC15F0C5D7D9CFE6FFE1CFD9FFBE
:10121000030EE126020EDB6ADFEC13F0200E0F0155
:10122000E76E0019E8AE02D0E73402D0E750005D67
:1012300003E36550020B02E0000E3BD00401D251E3
:1012400034E1140EE66EA10EE66E000EE66E09ECB9
:1012500028F0E552E552E552DF6EDF5026E001014D
:10126000B76BB96BB86BBA6BBB6BF096F098DF04D9
:10127000EA6AA10FE96E000EEA22EF6AFD0EDBCFEB
:10128000E6FFFE0EDBCFE6FFA10EE66E000EE66E79
:1012900023EC1FF0E552E552E552E552E76E020EEF
:1012A000E7CFDBFF0101010EB46F07EC29F0020E5E
:1012B000DB50146E030EE15C02E2E16AE552E16E7E
:1012C0001450E552E7CFD9FF1200D9CFE6FFE1CFA6
:1012D000D9FF020EE126380EDF6E0101B40501E0F0
:1012E0002DD2FE0EDB50100A01E116D21F0A01E1D9
:1012F000CED1020A01E1ADD1010A01E17ED1070A96
:1013000001E147D1010A01E128D1030A01E1DED060
:101310000E0A01E180D0010A55E0030A2FE0010A1C
:1013200015E0050A01E008D283C1E6FF84C1E6FFAB
:1013300085C1E6FF610EE66E000EE66EDEEC2DF076
:10134000146E050EE15E1450080E01D1010EE66E1A
:10135000610EE66E000EE66EFC0EDBCFE9FFFD0EC1
:10136000DBCFEAFFEF50E66EDFCFE6FFD4EC2BF0E9
:10137000146E050EE15E1450010EE9D0010EE76E09
:10138000FC0EDBCFE9FFFD0EDBCFEAFFE750E926DD
:10139000000EEA22EF50E66E610EE66E000EE66E7B
:1013A000FC0EDBCFE9FFFD0EDBCFEAFFEF50E66E70
:1013B000DFCFE6FFD4EC2BF0146E050EE15E145087
:1013C000010EB9D0FC0EDBCFE9FFFD0EDBCFEAFF4B
:1013D000EF50000809E2FC0EDBCFE9FFFD0EDBCF8A
:1013E000EAFFEF50640802E2B76BA6D1010EB76FB7
:1013F000640E146EFC0EDBCFE9FFFD0EDBCFEAFFBF
:10140000EFCF15F015C00EF014C009F017EC32F054
:1014100009C0B6F191D1010EE66E610EE66E000EC6
:10142000E66EFC0EDBCFE9FFFD0EDBCFEAFFEF50EF
:10143000E66EDFCFE6FFD4EC2BF0146E050EE15E16
:101440001450020EE76EFC0EDBCFE9FFFD0EDBCF82
:10145000EAFFE750E926000EEA22EFCF15F0010E71
:10146000E76EFC0EDBCFE9FFFD0EDBCFEAFFE750B6
:10147000E926000EEA22EF501514146E020EE76EF4
:10148000FC0EDBCFE9FFFD0EDBCFEAFFE750E926DC
:10149000000EEA22EF1C000161151410626F010EAC
:1014A000E66E620EE66E000EE66EFC0EDBCFE9FF26
:1014B000FD0EDBCFEAFFEF50E66EDFCFE6FF2EEC4E
:1014C0002CF0146E050EE15E145036D18A8ADE527D
:1014D0000A0EDD6E010EDBCFF3FFDB06F3500009D1
:1014E000F9E1020EE76EFC0EDBCFE9FFFD0EDBCF6C
:1014F000EAFFE750E926000EEA22EF50E66E610EA1
:10150000E66E000EE66E010EE76EFC0EDBCFE9FF25
:10151000FD0EDBCFEAFFE750E926000EEA22EF508E
:10152000E66EDFCFE6FFD4EC2BF0146E050EE15E25
:1015300014508A9A020EE76EFC0EDBCFE9FFFD0E17
:10154000DBCFEAFFE750E926000EEA22EF50E66E15
:10155000610EE66E000EE66ED9D0FC0EDBCFE9FF21
:10156000FD0EDBCFEAFFEF0406E19382F18AF086FD
:10157000010EBA6F08D0FC0EDBCFE9FFFD0EDBCF0A
:10158000EAFFEF5002089384F188F088010EBB6FE8
:10159000D3D08A8ADE520A0EDD6E010EDBCFF3FF56
:1015A000DB06F3500009F9E1010EE66E020EE76E6C
:1015B000FC0EDBCFE9FFFD0EDBCFEAFFE750E926AB
:1015C000000EEA22EF50E66EE66A010EE76EFC0EB0
:1015D000DBCFE9FFFD0EDBCFEAFFE750E926000E87
:1015E000EA22EF50E66EDFCFE6FF2EEC2CF0146E11
:1015F000050EE15E14508A9A9FD0FC0EDBCFE9FF06
:10160000FD0EDBCFEAFFEF50000809E2FC0EDBCF56
:10161000E9FFFD0EDBCFEAFFEF50640802E2B76B93
:1016200014D0010EB76F640E146EFC0EDBCFE9FF11
:10163000FD0EDBCFEAFFEFCF15F015C00EF014C0A2
:1016400009F017EC32F009C0B6F10101010EB96FD3
:1016500073D0F29EFC0EDBCFE9FFFD0EDBCFEAFF7D
:10166000EF500B0DFE0EF3CFDBFF8A88010EDB6A15
:10167000FE0EDB50F36E010EDBCFF4FFF350F45C93
:1016800003E2010EDB06F4D78A98F28E55D0010EE4
:10169000E76EFC0EDBCFE9FFFD0EDBCFEAFFE75084
:1016A000E926000EEA22EF50E66E020EE76EFC0E0F
:1016B000DBCF14F0FD0EDBCF15F0E7501426000E43
:1016C000152214C0E6FF15C0E6FFFC0EDBCFE9FFD4
:1016D000FD0EDBCFEAFFEF50E66EDFCFE6FF2EEC2C
:1016E0002CF0166E050EE15E1650010EE66EE76EEA
:1016F000FC0EDBCF14F0FD0EDBCF15F0E750142607
:10170000000E152214C0E6FF15C0E6FF69EC28F0B4
:10171000E552E552E55210D00001080E606F8C6E64
:10172000F096F0980101BA6BBB6BB86B0AEC15F040
:101730001BEC15F084EC2CF00101B46BB85138E0CF
:101740000001616962698C6A0101B95112E0040EFD
:10175000E66E630EE66E000EE66E400EE66EDFCFBE
:10176000E6FFD4EC2BF0146E050EE15E1450060E6D
:1017700011D0030EE66E630EE66E000EE66E410EAD
:10178000E66EDFCFE6FFD4EC2BF0146E050EE15EC3
:101790001450050EE66E610EE66E000EE66E69EC04
:1017A00028F0E552E552E5520101B86B010E8C6E4E
:1017B000020EE15C02E2E16AE552E16EE552E7CF3A
:1017C000D9FF1200D9CFE6FFE1CFD9FF030EE12602
:1017D000DE6ADD6A0101B40501E018D2FE0EDB50BD
:1017E000100A01E103D21F0A01E1CFD1030A01E18E
:1017F000A0D1070A01E162D1010A01E14ED1030A39
:1018000001E1FDD0010A01E1C9D00F0A01E179D05F
:10181000010A4EE0030A26E0010A1DE0070A19E06A
:10182000010A15E0030A01E0EFD180C1E6FF81C1A2
:10183000E6FF82C1E6FF610EE66E000EE66EDEECAC
:101840002DF0146E050EE15E1450060E20D18A961E
:10185000DBD18A86D9D1FC0EDBCFE9FFFD0EDBCFD1
:10186000EAFFB9D0FC0EDBCFE9FFFD0EDBCFEAFFCC
:10187000EF50DF12010EE76EFC0EDBCFE9FFFD0E2D
:10188000DBCFEAFFE750E926000EEA22EF50E66ED2
:10189000610EE66E000EE66EDECFE6FFDDCFE6FF00
:1018A00095EC2CF0146E050EE15E1450010EE3D0A1
:1018B000FC0EDBCFE9FFFD0EDBCFEAFFEF500008A7
:1018C00009E2FC0EDBCFE9FFFD0EDBCFEAFFEF50B4
:1018D000640802E2B76B98D1010EB76F640E146E04
:1018E000FC0EDBCFE9FFFD0EDBCFEAFFEFCF15F0FB
:1018F00015C00EF014C009F017EC32F009C0B6F1B3
:1019000083D1FC0EDBCFE9FFFD0EDBCFEAFFEF500A
:10191000DF12010EE66E610EE66E000EE66EDECFA1
:10192000E6FFDDCFE6FF95EC2CF0146E050EE15ED0
:101930001450020EE76EFC0EDBCFE9FFFD0EDBCF8D
:10194000EAFFE750E926000EEA22EFCF15F0010E7C
:10195000E76EFC0EDBCFE9FFFD0EDBCFEAFFE750C1
:10196000E926000EEA22EF501514146E020EE76EFF
:10197000FC0EDBCFE9FFFD0EDBCFEAFFE750E926E7
:10198000000EEA22EF1C000161151410626F010EB7
:10199000E66E620EE66E000EE66EC0D0FC0EDBCF89
:1019A000E9FFFD0EDBCFEAFFEF502809DE6EDD6AAE
:1019B000D9CFE9FFDACFEAFFEE50ED6EEF6A010E04
:1019C000E76EFC0EDBCFE9FFFD0EDBCFEAFFE75051
:1019D000E926000EEA22EF50DF12010EE66E610EDC
:1019E000E66E000EE66EDECFE6FFDDCFE6FF95EC9D
:1019F0002CF0146E050EE15E1450010E48D0FC0E62
:101A0000DBCFE9FFFD0EDBCFEAFFEF502809DE6EEA
:101A1000DD6AD9CFE9FFDACFEAFFEE50ED6EEF6A6B
:101A2000010EE76EFC0EDBCFE9FFFD0EDBCFEAFF18
:101A3000E750E926000EEA22EF50DF12020EE76EB1
:101A4000FC0EDBCFE9FFFD0EDBCFEAFFE750E92616
:101A5000000EEA22EF50E66E610EE66E000EE66EB4
:101A6000DECFE6FFDDCFE6FF95EC2CF0146E050E21
:101A7000E15E1450020EE76EFC0EDBCFE9FFFD0EB7
:101A8000DBCFEAFFE750E926000EEA22EF50E66ED0
:101A9000610EE66E000EE66E0BD0010EE66EFC0ED9
:101AA000DBCFE9FFFD0EDBCFEAFFEF50E66EE66A23
:101AB00069EC28F0E552E552E552A6D0FC0EDBCFEA
:101AC000E9FFFD0EDBCFEAFFEF502809DE6EDD6A8D
:101AD000D9CFE9FFDACFEAFFEE50ED6EEF6A010EE3
:101AE000E76EFC0EDBCFE9FFFD0EDBCFEAFFE75030
:101AF000E926000EEA22EF50DF12010EE66E020E1A
:101B0000E76EFC0EDBCFE9FFFD0EDBCFEAFFE7500F
:101B1000E926000EEA22EF50E66EE66ADECFE6FF27
:101B2000DDCFE6FFF5EC2CF0146E050EE15E1450EF
:101B30006BD0FC0EDBCFE9FFFD0EDBCFEAFFEF50F1
:101B4000000809E2FC0EDBCFE9FFFD0EDBCFEAFF68
:101B5000EF50640802E2B76B14D0010EB76F640E49
:101B6000146EFC0EDBCFE9FFFD0EDBCFEAFFEFCFFB
:101B700015F015C00EF014C009F017EC32F009C0D2
:101B8000B6F10101010EB96F3FD0FC0EDBCFE9FFCA
:101B9000FD0EDBCFEAFFEF50DF12010EE76EFC0E09
:101BA000DBCFE9FFFD0EDBCFEAFFE750E926000EB1
:101BB000EA22EF50E66E020EE76EFC0EDBCF14F069
:101BC000FD0EDBCF15F0E7501426000E152214C0D1
:101BD000E6FF15C0E6FFDECFE6FFDDCFE6FFF5EC62
:101BE0002CF0166E050EE15E16500ED000010A0EA6
:101BF000606F8C6E0AEC15F01BEC15F0010E010104
:101C0000AD6FAE6BC8EC2BF00101B46BB85133E093
:101C10000001616962690101B95111E0080EE66EC7
:101C2000630EE66E000EE66E000EE66EE66A95EC5A
:101C30002CF0146E050EE15E14500A0E10D0060E44
:101C4000E66E630EE66E000EE66E020EE66EE66A65
:101C500095EC2CF0146E050EE15E1450080EE66E45
:101C6000610EE66E000EE66E69EC28F0E552E55274
:101C7000E5520101B86B030EE15C02E2E16AE55254
:101C8000E16EE552E7CFD9FF1200D9CFE6FFE1CFF1
:101C9000D9FF0C0EE126300EDF6E0101B40501E024
:101CA000BBD3FE0EDB50100A01E1A6D31F0A01E1EF
:101CB0005ED3010A01E1E3D2020A01E1B4D2070ACC
:101CC00001E17BD2010A01E157D2030A01E10BD203
:101CD0000E0A01E1A9D1010A01E17DD1030A01E166
:101CE00056D1010A01E13BD1070A01E136D1010ACF
:101CF00001E132D1030A01E08DD3FC0EDBCFE9FF15
:101D0000FD0EDBCFEAFFEF500DE186C1E6FF87C194
:101D1000E6FF88C1E6FF610EE66E000EE66EDEECC1
:101D20002DF045D0FC0EDBCFE9FFFD0EDBCFEAFF47
:101D3000EF0442E1D950010FE66E000EDA20E66EA4
:101D400097EC13F0E552E552610EE66E000EE66E7A
:101D5000D950010FE96EDACFEAFFEECFE6FFEECF02
:101D6000E6FFEECFE6FFEFCFE6FFF3EC2AF0146ECE
:101D7000060EE15E14508CC1E6FF8DC1E6FF8EC1F8
:101D8000E6FF610EE66E000EE66EACEC2DF0146E12
:101D9000050EE15E145089C1E6FF8AC1E6FF8BC1E2
:101DA000E6FF610EE66E000EE66EACEC2DF0146EF2
:101DB000050EE15E1450C2D0FC0EDBCFE9FFFD0E34
:101DC000DBCFEAFFEF50020801E099D00001616B20
:101DD000FC0EDBCFE9FFFD0EDBCFEAFFEF28E76E5D
:101DE0000B0EE7CFDBFF650EF66E640EF76E080094
:101DF000F550F36E0B0EDBCFF4FFF350F45C01E310
:101E00009DD089C1E6FF8AC1E6FF8BC1E6FF610E66
:101E1000E66E000EE66EACEC2DF0146E050EE15E83
:101E200014500B0EDBCFE9FFEA6AE9BEEA68030E45
:101E3000EA02F3CFEAFFE902F3CFE9FFF450EA2622
:101E4000470EE926010EEA22EECFE6FFEECFE6FFCF
:101E5000EFCFE6FF610EE66E000EE66EACEC2DF005
:101E6000146E050EE15E14508FC1E6FF90C1E6FFCF
:101E700091C1E6FF610EE66E000EE66EACEC2DF051
:101E8000146E050EE15E1450D950060FE66E000E7A
:101E9000DA20E66E0B0EDBCFE6FFFC0EDBCFE9FFB0
:101EA000FD0EDBCFEAFFEF50E552E75CFF0FE96E76
:101EB000EA6AD890E936EA36950EE926010EEA225A
:101EC000EECFE6FFEFCFE6FF59EC2AF0E552E55200
:101ED000E552E552F3CF14F0F4CF15F0F3CFE6FF5F
:101EE000F4CFE6FF610EE66E000EE66E88EC2DF094
:101EF000E552E552E552E5520B0EDB2A74D7610E2E
:101F0000E66E000EE66EFC0EDBCFE9FFFD0EDBCFCA
:101F1000EAFFEF50FD0FE96EEA6AD890E936EA363B
:101F2000950EE926010EEA22EECFE6FFEFCFE6FF9F
:101F300059EC2AF0E552E552E552E552610EE66EA3
:101F4000000EE66EF7EC2DF0E552E552050EF3CFEC
:101F5000DBFFDBCFE6FF0BD18A968A865BD2010ED0
:101F6000E66E610EE66E000EE66EFC0EDBCFE9FF5C
:101F7000FD0EDBCFEAFFEF50E66EDFCFE6FFD4ECDD
:101F80002BF0146E050EE15E1450010EEFD0010E21
:101F9000E76EFC0EDBCFE9FFFD0EDBCFEAFFE7507B
:101FA000E926000EEA22EF50E66E610EE66E000EA4
:101FB000E66EFC0EDBCFE9FFFD0EDBCFEAFFEF5054
:101FC000E66EDFCFE6FFD4EC2BF0146E050EE15E7B
:101FD0001450010EBFD0FC0EDBCFE9FFFD0EDBCFAE
:101FE000EAFFEF50000809E2FC0EDBCFE9FFFD0E2F
:101FF000DBCFEAFFEF50640802E2B76B0BD2010EB1
:10200000B76F640E146EFC0EDBCFE9FFFD0EDBCF65
:10201000EAFFEFCF15F015C00EF014C009F017EC71
:1020200032F009C0B6F1F6D1010EE66E610EE66E31
:10203000000EE66EFC0EDBCFE9FFFD0EDBCFEAFF04
:10204000EF50E66EDFCFE6FFD4EC2BF0146E050EFA
:10205000E15E1450020EE76EFC0EDBCFE9FFFD0ED1
:10206000DBCFEAFFE750E926000EEA22EFCF15F0BA
:10207000010EE76EFC0EDBCFE9FFFD0EDBCFEAFFC2
:10208000E750E926000EEA22EF501514146E020EF6
:10209000E76EFC0EDBCFE9FFFD0EDBCFEAFFE7507A
:1020A000E926000EEA22EF1C000161151410626F90
:1020B000010EE66E620EE66E000EE66EFC0EDBCFE3
:1020C000E9FFFD0EDBCFEAFFEF50E66EDFCFE6FF64
:1020D0002EEC2CF0146E050EE15E1450010EE66E2F
:1020E000E66EE66A83D18A8A0A0EF36E0B0EF3CF90
:1020F000DBFF0B0EDBCFF3FFDB06F3500009F9E14A
:10210000020EE76EFC0EDBCFE9FFFD0EDBCFEAFF30
:10211000E750E926000EEA22EF50E66E610EE66E09
:10212000000EE66E010EE76EFC0EDBCFE9FFFD0E42
:10213000DBCFEAFFE750E926000EEA22EF50E66E19
:10214000DFCFE6FFD4EC2BF0146E050EE15E1450E9
:102150008A9A020EE76EFC0EDBCFE9FFFD0EDBCFA5
:10216000EAFFE750E926000EEA22EF50E66E610E24
:10217000E66E000EE66E3AD1B96BFC0EDBCFE9FFDE
:10218000FD0EDBCFEAFFEF50020A11E0060A0DE078
:10219000050A05E0020A01E03DD1020EB96F938203
:1021A000F18AF086010EBA6F35D1020EB96F9384B1
:1021B000F188F088010EBB6F2DD18A8A0A0EF36E6A
:1021C0000B0EF3CFDBFF0B0EDBCFF3FFDB06F35081
:1021D0000009F9E1010EE66E020EE76EFC0EDBCFA0
:1021E000E9FFFD0EDBCFEAFFE750E926000EEA2209
:1021F000EF50E66EE66A010EE76EFC0EDBCFE9FFFC
:10220000FD0EDBCFEAFFE750E926000EEA22EF5091
:10221000E66EDFCFE6FF2EEC2CF0146E050EE15ECD
:1022200014508A9AF7D0FC0EDBCFE9FFFD0EDBCF0E
:10223000EAFFEF50000809E2FC0EDBCFE9FFFD0EDC
:10224000DBCFEAFFEF50640802E2B76B14D0010E57
:10225000B76F640E146EFC0EDBCFE9FFFD0EDBCF13
:10226000EAFFEFCF15F015C00EF014C009F017EC1F
:1022700032F009C0B6F10101010EB96FCBD0FC0EEE
:10228000DBCFE9FFFD0EDBCFEAFFEF5004081DE1D5
:10229000010EE76EFC0EDBCFE9FFFD0EDBCFEAFFA0
:1022A000E750E926000EEA22EFCF06F0076A086A37
:1022B000096A640E0B6E0C6A0D6A0E6AD1EC30F07E
:1022C00002C097F103C098F123D0010EE76EFC0E17
:1022D000DBCFE9FFFD0EDBCFEAFFE750E926000E7A
:1022E000EA22EF50E66EFC0EDBCFE9FFFD0EDBCFFE
:1022F000EAFFEF50FD0FE96EEA6AD890E936EA3658
:10230000950EE926010EEA22E552E750EE6EED6ADF
:10231000FC0EDBCFE9FFFD0EDBCFEAFFEF50030839
:1023200024E0FC0EDBCFE9FFFD0EDBCFEAFFEF5030
:1023300004081BE0FC0EDBCFE9FFFD0EDBCFEAFF5C
:10234000EF500D0812E0FC0EDBCFE9FFFD0EDBCFF6
:10235000EAFFEF500E0809E0FC0EDBCFE9FFFD0EAF
:10236000DBCFEAFFEF500F0855E18FDA53D0010EB3
:10237000E76EFC0EDBCFE9FFFD0EDBCFEAFFE75097
:10238000E926000EEA22EF50E66E020EE76EFC0E22
:10239000DBCF14F0FD0EDBCF15F0E7501426000E56
:1023A000152214C0E6FF15C0E6FFFC0EDBCFE9FFE7
:1023B000FD0EDBCFEAFFEF50E66EDFCFE6FF2EEC3F
:1023C0002CF0166E050EE15E1650010EE66EE76EFD
:1023D000FC0EDBCF14F0FD0EDBCF15F0E75014261A
:1023E000000E152214C0E6FF15C0E6FF69EC28F0C8
:1023F000E552E552E5520ED00001070E606F8C6E7B
:10240000F096F0980101BA6BBB6BB86B03DB13DB82
:10241000C8EC2BF00101B46BB85101E17ED1F29E02
:10242000B86BB95116E1060E9BC1DBFF030E086EB7
:10243000096A99C10DF09AC10EF09CEC2FF0090EBB
:1024400006C0DBFFDB500101156AA125146EA25105
:1024500015D0060E9DC1DBFF040E086E096A99C1F6
:102460000DF09AC10EF09CEC2FF0090E06C0DBFFB8
:10247000DB500101156AA325146EA4511522070E25
:1024800014C0DBFFDBCFE6FFFC0EDBCFE6FFFD0E6B
:10249000DBCFE6FF060EDBCFE6FFDFCFE6FFD4ECB7
:1024A0002BF0146E050EE15E14500101A551A6112A
:1024B0000AE1B95104E1080EA1C1DBFF0FD0080EFB
:1024C000A3C1DBFF0BD0FF0EA51905E1A65103E167
:1024D000080EDB6A03D0080EA5C1DBFF020E9919B6
:1024E00064E19A5162E1010E9F195FE1A0515DE143
:1024F0000B0EDB6A090EDB50F36E0B0EDBCFF4FF25
:10250000F350F45C01E381D0080EDBCFE6FF0B0E45
:10251000DB50E552E724010FE76EFC0EDBCFE9FF4D
:10252000FD0EDBCFEAFFE750E926000EEA22EF506E
:10253000E66E0B0EDB50020FE96EEA6AE9BEEA684E
:10254000610EE926000EEA22E552E750EF6E080E12
:10255000DBCFE6FF0B0EDB50E552E724E76EFC0E07
:10256000DBCFE9FFFD0EDBCFEAFFE750E926000EE7
:10257000EA22EF50E66E0B0EDB50020F010FE96E00
:10258000EA6AE9BEEA68610EE926000EEA22E5522F
:10259000E750EF6E020E146E0B0EDBCFE7FF145008
:1025A000E7260B0EE7CFDBFFA5D70B0EDB6A090E84
:1025B000DB50F36E0B0EDBCFF4FFF350F45C25E23F
:1025C000080EDBCFE6FF0B0EDB50E552E724E76E8B
:1025D000FC0EDBCFE9FFFD0EDBCFEAFFE750E9267B
:1025E000000EEA22EF50E66E0B0EDB50020FE96E92
:1025F000EA6AE9BEEA68610EE926000EEA22E552BF
:10260000E750EF6E0B0EDB2AD2D7090EDB50020F1C
:10261000E76E050EE7CFDBFF0101B9516EE0A75170
:10262000A8116BE10B0EDB6ADBCF14F0050EDB505B
:10263000E76E1418E8AE02D0E73402D0E750145C1D
:102640002EE20B0EDBCFE6FF050EDB04E552D88051
:10265000E754E96EEA6AE9BEEA68610EE926000E0F
:10266000EA22EF50E66E0B0EDBCFE6FF050EDB0431
:10267000E552D880E754146E156A14BE15681450DC
:102680009925E96E15509A21EA6E610EE926000E31
:10269000EA22E552E750EF6E0B0EDB2AC5D70B0E90
:1026A000DB6ADBCF14F0156A14BE15689951145C0F
:1026B0009A51155822E20B0EDBCFE6FF050EDB50D8
:1026C000E552E724E96EEA6AE9BEEA68610EE926A6
:1026D000000EEA22EF50E66E0B0EDB50020FE96EA1
:1026E000EA6AE9BEEA68610EE926000EEA22E552CE
:1026F000E750EF6E0B0EDB2AD4D7000161696269E7
:10270000F28E050EDBCFE6FF610EE66E000EE66E82
:1027100069EC28F0E552E552E5520C0EE15C02E26C
:10272000E16AE552E16EE552E7CFD9FF1200D9CF59
:10273000E6FFE1CFD9FF000EE66EE66A4CEC31F021
:10274000E552E5522F0EE66E68EC31F0E552F00EE0
:10275000E66EBAEC31F0E5523CEC32F02DEC31F0A3
:10276000F3CF14F0F4CF15F0166A176A050E0B6E4E
:102770000C6A0D6A0E6AF3CF06F0F4CF07F016C0AC
:1027800008F017C009F0D1EC30F002C014F003C01B
:1027900015F004C016F005C017F0FD0EDBCFE9FF01
:1027A000FE0EDBCFEAFF02C0EEFF15C0EEFF16C043
:1027B000EEFF17C0EEFFE552E7CFD9FF120001018F
:1027C000C751C81104E1100EC76F270EC86FC707A5
:1027D000000EC85B65A207D0C751C8112EE18C7CE2
:1027E0008CBC13D027D00F01005102E18C9C22D069
:1027F000000502E18C8C09D0020E005D02E18C8C98
:1028000019D0040E005D03E18C9C8C8E1200100E1A
:10281000005D06E10101C751C8110FE18C7C0AD0AF
:10282000200E005D0AE10101C751C81106E18C7C50
:102830008CAC02D08C9E12008C8E1200D9CFE6FF99
:10284000E1CFD9FF020EE126580EDE6E020EDD6EDC
:102850009B8CDFCF14F0DF06010EDBCF15F001E219
:10286000DB0614501510F5E1C088C168C268C09835
:102870000CD8D0EC15F0020EE15C02E2E16AE55200
:10288000E16EE552E7CFD9FF1200E7EC31F001012C
:10289000AD51AE1116E0C8EC2BF0E00E086E2E0E16
:1028A000096E97C10DF098C10EF0D1EC31F008C05F
:1028B00014F009C015F01406000E155A1450C86E15
:1028C0000AD084EC2CF00101A9510F0BF36EF00E2D
:1028D000C614F310C66EABC1CBFFCC6A7C0EE66E9D
:1028E0009FEC31F0E552BB0E776E786AFD0EE66E16
:1028F00084EC31F0E5521200120012008450100BEB
:1029000001E0010E0001E25D0DE1E35102E0E307A9
:1029100012008450100B100A01E0010EE26F640EE9
:10292000E36F1200E35101E0E3071200120043EFEE
:1029300027F0120091EF27F00F01240520E10F018D
:1029400025051DE1A098D9DF65920F01256B0001D7
:10295000100EE46F0E0EE56FE407000EE55BE45128
:10296000E511FAE16584080EE46F070EE56FE407F0
:10297000000EE55BE451E511FAE16594A0881200D0
:10298000D9CFE6FFE1CFD9FFFD0EDBCF08F0FE0E79
:10299000DBCF09F0050E081801E1095036E0E868C0
:1029A000081802E17F0E09182FE0030E081801E154
:1029B000095028E0020E081801E1095021E0010E3B
:1029C000081801E109501AE0740E081801E10950D5
:1029D00013E0750E081801E109500CE0730E081899
:1029E00001E1095005E0720E08180FE109500DD001
:1029F00085DF0BD081DF09D080DF07D09BDF05D0DA
:102A000098DF03D094DF01D091DF010EE552E7CFCC
:102A1000D9FF1200F66AF80EF76E010EF86E140E6A
:102A2000A66EF29E550EA76EAA0EA76EA682A6945B
:102A3000F28E04001200010EF86EF80EF76E000E12
:102A4000F66E60C0F5FF0D00000EF56E0C00A68A54
:102A5000A684F29E550EA76EAA0EA76EA682F28ECF
:102A6000A694A69A04001200D9CFE6FFE1CFD9FFC1
:102A7000020EE126F6CFDEFFF7CFDDFFF66AF80E95
:102A8000F76E010EF86E0800DECFF6FFDDCFF7FF20
:102A9000F86AF7BEF868F5CF60F0020EE15C02E27A
:102AA000E16AE552E16EE552E7CFD9FF120084B842
:102AB0000CD00101E80EBF5D030EC05903E3010E07
:102AC000BD6F12D0010EBC6F12000101640EBF5D1C
:102AD000000EC05907E3E80EBF5D030EC05902E2C5
:102AE000010EBE6FBF6BC06BBC6B1200E0DF01015B
:102AF000BD5124E0C951CA1110E1880EC96F130EEF
:102B0000CA6FCB5102E0000E01D0010ECB6FE8502E
:102B100003E060C08CFF01D08C6AC907000ECA5B5D
:102B2000880EC15D130EC25909E3BD6BC16BC26B48
:102B3000CC5102E06FDF7FDF60C08CFF0101BE512E
:102B40002EE0BD512AE0C16BC26B000160510A0A40
:102B500016E0020A0DE00F0A1CE1080E606FF09605
:102B6000F0980101BA6BBB6BB86B84EC2CF011D000
:102B70000A0E606F010E0101AD6FAE6B08D0070E3B
:102B8000606FF096F0980101BA6BBB6BB86BC8EC44
:102B90002BF00101010ECC6F01D0CC6BBE6B12008B
:102BA000D9CFE6FFE1CFD9FFE652A098636A626A07
:102BB0000F014C6B020EE66EE66AE66A4D0EE66E9B
:102BC0000F0EE66E6EEC2DF0146E050EE15E1450E5
:102BD0000F01160E5F6F9F0E5D6F7B0E5C6FDF6ADD
:102BE000DF50146E156A0C0E145C000E155810E2BE
:102BF000DF50040DF3CFE9FFF4CFEAFF000EE92622
:102C0000040EEA22EE6AEE6AEE6AEE6ADF2AE8D77E
:102C1000658C0F015E6B6598659C62A607D0629615
:102C20000F01186B1D6B1E6B1F6BF7D70F01010E89
:102C3000316F326F336B346B256BDF6A030EDF5CF1
:102C400026E2EA6ADF34FE0BEA36E96E0E0EE9266A
:102C50000F0EEA22EE6AED6AEA6ADF34FE0BEA360C
:102C6000E96E080EE9260F0EEA22EE6AED6ADF50E1
:102C7000EA6A290FE96E0F0EEA22EF6ADF50EA6A6C
:102C80002C0FE96E0F0EEA22EF6ADF2AD7D70F0169
:102C9000080E0E6F040E0F6F0F01160E4C6F04011D
:102CA000300E026F040E036F080E016F840E006F6A
:102CB0000F01016B006BE552E552E7CFD9FF12001F
:102CC000D9CFE6FFE1CFD9FFE6520F01000509E1B8
:102CD00065BA07D0626A0F015C815C890F01020E40
:102CE000006F6250040B07E00F015C51040B03E01E
:102CF00062945EEC1CF065B25ED06250010B0AE09B
:102D00000F015C51010B06E04BDFA0880F01040EA0
:102D1000006F62906250100B07E00F015C51100BC6
:102D200003E048EC1CF0629862AC1AD00F015CAD75
:102D30000FD0010EE66EE66A000EE66EE66A730ECE
:102D4000E66EE66AC0EC14F0146E060EE15E1450F6
:102D5000629C0F012F5101E02F072F5101E100DA92
:102D60006250200B06E00F015C51200B02E02EECBC
:102D70001CF06250020B14E00F015C51020B10E0DA
:102D8000010EE66EE66A000EE66EE66AE6687F0E03
:102D9000E66EC0EC14F0146E060EE15E1450636A29
:102DA000040E0F01E76E0019E8AE02D0E73402D03E
:102DB000E750005D02E2A1983AD00F015CA736D03F
:102DC000DF6A040EDF5C32E262A630D064CF26FFF9
:102DD0000F012651780BE842E842E842276F6296DD
:102DE00026B506D02751EA6A2C0FE96E0F0E05D0E2
:102DF0002751EA6A290FE96E0F0EEA22EF70275178
:102E000003E176EC1CF010D0000EE66EE66A260EAA
:102E1000E66E0F0EE66E720EE66EE66AC0EC14F019
:102E2000146E060EE15E1450DF2ACBD7A198E5524E
:102E3000E552E7CFD9FF1200D9CFE6FFE1CFD9FFA6
:102E4000020EE126FD0EDBA407D0E66AFE0EDBCF04
:102E5000E6FF15DAE552E552FD0EDBA208D0010EC1
:102E6000E66EFE0EDBCFE6FF0ADAE552E552FE0E15
:102E7000DB50156A4C0F146E0F0E152214C0DEFFC6
:102E800015C0DDFFDECFE9FFDDCFEAFFFD0EDBCFB2
:102E9000EFFF020EE15C02E2E16AE552E16EE5520B
:102EA000E7CFD9FF1200D9CFE6FFE1CFD9FF020E5D
:102EB000E126FD0EDB500AE0FE0EEA6ADB34FE0B73
:102EC000EA36E96E0E0EE9260F0E09D0FE0EEA6A0A
:102ED000DB34FE0BEA36E96E080EE9260F0EEA2215
:102EE000EECFDEFFEDCFDDFFD9CFE9FFDACFEAFF8E
:102EF000EE50ED1003E1F36AF46A44D0DECFE9FF4F
:102F0000DDCFEAFF020EE926000EEA22FB0EDBCF40
:102F1000EEFFFC0EDBCFEDFFDECFE9FFDDCFEAFFFA
:102F2000EE52FA0EDBCFEFFF400EDECFE9FFDDCF32
:102F3000EAFFE850EF16880EDECFE9FFDDCFEAFFAB
:102F4000E850EF12FD0EDB500AE0FE0EEA6ADB34B9
:102F5000FE0BEA36E96E0E0EE9260F0E09D0FE0EC4
:102F6000EA6ADB34FE0BEA36E96E080EE9260F0E3C
:102F7000EA22EF74DECF14F0DDCF15F014C0F3FFBA
:102F800015C0F4FF020EE15C02E2E16AE552E16E77
:102F9000E552E7CFD9FF1200D9CFE6FFE1CFD9FF45
:102FA000020EE126FE0EDB5020E106CFE9FF07CF3F
:102FB000EAFFEE52080EEF6E06CFE9FF07CFEAFFF9
:102FC000020EE926000EEA22300EEE6E040EED6EC1
:102FD00006CFE9FF07CFEAFF8C0EEF6E0ECFE9FFB9
:102FE0000FCFEAFF840EEF6E3BD0FD0EDB50E824DE
:102FF000166EFE0EDB50040DF3501624040DF3CFB5
:1030000014F0F4CF15F0000E1426040E152214C08F
:10301000DEFF15C0DDFF840EDECFE9FFDDCFEAFF66
:10302000E850EF12FD0EDB50E824166EFE0EDB506A
:10303000040DF3501624010F040DF3CF14F0F4CF58
:1030400015F0000E1426040E152214C0DEFF15C064
:10305000DDFF840EDECFE9FFDDCFEAFFE850EF129F
:10306000020EE15C02E2E16AE552E16EE552E7CF71
:10307000D9FF1200D9CFE6FFE1CFD9FF65A84ED026
:10308000FE0EEA6ADB34FE0BEA36E96E0E0EE92626
:103090000F0EEA22EE50EFCFEAFFE96E400EEE1679
:1030A000EE6AEE6AEE6AFE0EEA6ADB34FE0BEA3680
:1030B000E96E0E0EE9260F0EEA22EE50EFCFEAFF80
:1030C000E96EEE7CFE0EEA6ADB34FE0BEA36E96E50
:1030D0000E0EE9260F0EEA22EF74400E146EFE0E5D
:1030E000EA6ADB34FE0BEA36E96E0E0EE9260F0EB5
:1030F000EA22EE50EFCFEAFFE96E1450EF16FE0E13
:10310000EA6ADB34FE0BEA36E96E0E0EE9260F0E94
:10311000EA22EE50EFCFEAFFE96EEF7CE552E7CF0F
:10312000D9FF1200656A0F015C6B0F01006B120082
:103130000F01005114E1656A0F015C6B160E5F6FA1
:103140009F0E5D6F7B0E5C6FD08EA288A088F28E82
:1031500065B602D06586FCD70F01010E006F120024
:103160000F0131514DE1010E316F325149E1010E34
:10317000326F020E155D0DE10ECFE9FF0FCFEAFFB2
:10318000EE52EF6A0ECFE9FF0FCFEAFFC80EEF6EE7
:103190001200150535E1286B04CFE9FF05CFEAFFE2
:1031A000EE52080EEF6E04CFE9FF05CFEAFF020EE4
:1031B000E926000EEA22300EEE6E040EED6E04CF0C
:1031C000E9FF05CFEAFF840EEF6E010E286F06CFF0
:1031D000E9FF07CFEAFFEE52080EEF6E06CFE9FFD8
:1031E00007CFEAFF020EE926000EEA22300EEE6E4D
:1031F000040EED6E06CFE9FF07CFEAFF800EEF6EFB
:1032000012000F01336B346B020E155D18E106CF0F
:10321000E9FF07CFEAFFEE52080EEF6E06CFE9FF97
:1032200007CFEAFF020EE926000EEA22380EEE6E04
:10323000040EED6E06CFE9FF07CFEAFF1DD019514E
:103240000401365D0F011A510401375904E236C4F6
:1032500019FF37C41AFFCAD80ECFE9FF0FCFEAFF14
:10326000020EE926000EEA22380EEE6E040EED6E16
:103270000ECFE9FF0FCFEAFFC80EEF6E1200D9CFD5
:10328000E6FFE1CFD9FF020EE126000EDE6E040E4E
:10329000DD6EFD0EDB50E824166EFE0EDB50040DD5
:1032A000F3501624040DF4CF15F0D9CFE9FFDACF8F
:1032B000EAFFF350EE261550ED22DECFE9FFDDCF19
:1032C000EAFFEF9EFD0EDB500AE1FE0EEA6ADB34F8
:1032D000FE0BEA36E96E080EE9260F0E09D0FE0E47
:1032E000EA6ADB34FE0BEA36E96E0E0EE9260F0EB3
:1032F000EA22DECFEEFFDDCFEDFFDECFE9FFDDCF4F
:10330000EAFFEF9CDECFE9FFDDCFEAFF040EE926FE
:10331000000EEA22EF8C020EE15C02E2E16AE55265
:10332000E16EE552E7CFD9FF120065980F0118BF93
:103330002BD01DAF09D0020E156F345101E161DFB2
:103340000F01326B316B120006CFE9FF07CFEAFFA6
:10335000EE52080EEF6E06CFE9FF07CFEAFF020E2E
:10336000E926000EEA22300EEE6E040EED6E06CF58
:10337000E9FF07CFEAFF8C0EEF6E0ECFE9FF0FCF0C
:10338000EAFF840EEF6E1200040130AF0DD00F0182
:10339000010E156F335101E134DF0F01326B316BD8
:1033A000305123E1B0EF18F00F01020E156F06CF78
:1033B000E9FF07CFEAFFEE52080EEF6E06CFE9FFF6
:1033C00007CFEAFF020EE926000EEA22300EEE6E6B
:1033D000040EED6E06CFE9FF07CFEAFF840EEF6E15
:1033E000326B316B305101E1BBDE1200D9CFE6FF09
:1033F000E1CFD9FFE652080EDF6E0F01195D000E16
:103400001A590AE219CFDFFF145102E1010E03D06D
:10341000140502E1020E146FDF50156AE850195DC1
:10342000196F15501A591A6F0ECFE9FF0FCFEAFF27
:10343000EE52DFCFEFFF380E226F040E236F18B16C
:1034400018D0DF502DE016CFF6FF17CFF7FF162B61
:10345000000E17230800F550E66E22CFE9FF23CFB8
:10346000EAFF222B000E2323E552E750EF6EDF0622
:10347000E8D7DF5015E016CFE9FF17CFEAFF162B8C
:10348000000E1723EF50E66E22CFE9FF23CFEAFFAD
:10349000222B000E2323E552E750EF6EDF06E9D71B
:1034A000E552E552E7CFD9FF1200D9CFE6FFE1CFD1
:1034B000D9FF020EE12604CFE9FF05CFEAFFEE5265
:1034C000EFCFDFFFDFCF14F014500F011E5D000EB1
:1034D0001F5902E21ECFDFFFDF50146E156AE8505D
:1034E0001E5D1E6F15501F591F6F010EDB6ADF50E6
:1034F000F36E010EDBCFF4FFF350F45C16E2010E25
:10350000DB50EA6A380FE96E040EEA22EF50E66EED
:103510001BCFE9FF1CCFEAFF1B2B000E1C23E5523B
:10352000E750EF6E010EDB2AE2D7000ED8801E5561
:10353000000E1F5527E206CFE9FF07CFEAFFEE5244
:10354000080EEF6E06CFE9FF07CFEAFF020EE9266D
:10355000000EEA22380EEE6E040EED6E04CFE9FF87
:1035600005CFEAFFEF50400B06E106CFE9FF07CF9A
:10357000EAFFC80E05D006CFE9FF07CFEAFF880EA5
:10358000EF6E28D006CFE9FF07CFEAFFEE52080E14
:10359000EF6E06CFE9FF07CFEAFF020EE926000E25
:1035A000EA22300EEE6E040EED6E06CFE9FF07CF75
:1035B000EAFF840EEF6E2051211107E005D021CFE4
:1035C000FAFF0F012051F96EFADF0F011D9F3051F4
:1035D00001E1C6DD020EE15C02E2E16AE552E16E64
:1035E000E552E7CFD9FF1200D9CFE6FFE1CFD9FFEF
:1035F000E6520F01188F020EE66EE66AE66A4D0E7D
:10360000E66E0F0EE66E6EEC2DF0146E050EE15EAA
:103610001450DF6ADF50146E156A0C0E145C000E35
:10362000155810E2DF50040DF3CFE9FFF4CFEAFFA5
:10363000000EE926040EEA22EE6AEE6AEE6AEE6AEF
:10364000DF2AE8D7658CDF6A030EDF5C10E2DF500B
:10365000EA6A290FE96E0F0EEA22EF6ADF50EA6A82
:103660002C0FE96E0F0EEA22EF6ADF2AEDD7020E69
:10367000E66EE66AE66A020EE66E0F0EE66E6EEC27
:103680002DF0146E050EE15E1450659C0F01080EBE
:103690000E6F040E0F6F000E046F040E056F04CF43
:1036A00006FF076F32C401FF015102E1100E12D074
:1036B000010EE66EE66A010EE66E0F0EE66E010E74
:1036C000E66EE66AC0EC14F0146E060EE15E14506D
:1036D0000F01200E006FE552E552E7CFD9FF12002F
:1036E000800E0401305D58E10F01C00E186F040117
:1036F0003351030A2FE0010A09E0030A4BE10F01ED
:10370000060E166F5E0E176F120E3ED03251F66E19
:10371000F76AD890F636F736C70EF6265E0EF72211
:103720000900F5CF16FF0A00F5CF17FF020E0F01B3
:10373000F76A1625F66E1751F7220800F5CF19FF24
:10374000030EF76A1625F66E1751F7220800F5CF1B
:103750001AFF1200030E325D1AE23251F66EF76A5A
:10376000D890F636F736C90EF6265E0EF722090017
:10377000F5CF16FF0A00F5CF17FF16CFF6FF17CFCC
:10378000F7FF0800F5500F01196F1A6B12000F01B7
:10379000186B12000F01186B1200D9CFE6FFE1CFB2
:1037A000D9FF020EE1260401386B396B30511F0B33
:1037B000020A11E0030A0CE0010A3CE10F01188F34
:1037C000040138810F01240535E10401388332D02A
:1037D0000F01188F2FD00F01188F040134BF0BD0A9
:1037E00034510F0BE96EEA6AD890E936EA36080ED2
:1037F000E9260F0E0AD034510F0BE96EEA6AD89011
:10380000E936EA360E0EE9260F0EEA22EECFDEFF8B
:10381000EDCFDDFFDECFE9FFDDCFEAFFEF50800B1C
:1038200009E0DECFE9FFDDCFEAFFEF50040B02E055
:10383000010E386F0F0118AF07D0380E166F040E47
:10384000176F1881020E196F020EE15C02E2E16A45
:10385000E552E16EE552E7CFD9FF12000F014CA10E
:1038600015D004CFE9FF05CFEAFFEF5080080DE146
:103870000ECFE9FF0FCFEAFFEF50840806E104CF37
:10388000E9FF05CFEAFF8C0EEF6E4C91629A1200B1
:103890000F015C85629865820F01010E256F000E95
:1038A000E66EE66AE66EE66A750EE66EE66AC0ECFD
:1038B00014F0146E060EE15E145012000F01256B19
:1038C000000EE66EE66AE66EE66A740EE66EE66A7C
:1038D000C0EC14F0146E060EE15E145065920F01F8
:1038E0005C9562A402D06294FCD71200D9CFE6FFA7
:1038F000E1CFD9FFE6520F012D0E2F6FFD0E2615D9
:1039000053E17E0E2615E8407F0B040DF3CF04FF34
:10391000F4CF05FF000E0427040E052304CF06FF95
:1039200005CF07FF067504CFE9FF05CFEAFFEF508B
:103930003C0BE842E8420D0835E1DF6A080EDF5C27
:1039400023E204CFE9FF05CFEAFF020EE926000ECD
:10395000EA22EE50EFCFEAFFE96EEF50E66EDF505D
:10396000EA6A300FE96E040EEA22E552E750EF6E84
:1039700004CFE9FF05CFEAFF020EE926000EEA2296
:10398000EE2AEF22DF2ADAD704CFE9FF05CFEAFFDC
:10399000020EE926000EEA22300EEE6E040EED6EE7
:1039A0000DD807D03AD805D0FD0E2615040801E140
:1039B00059D8E552E552E7CFD9FF12000F01146B39
:1039C000306B336B346B286B156B0ECFE9FF0FCF69
:1039D000EAFFEF9E0E750ECFE9FF0FCFEAFFEF9ED5
:1039E0000E7506CFE9FF07CFEAFFEF9E186B196B44
:1039F0001A6B1D6B1E6B1F6B8FD8000EE66EE66A8E
:103A0000E66EE66A030EE66EE66AC0EC14F0146E2B
:103A1000060EE15E145095EF19F0020E0F01155DD0
:103A200002E155EF1AF0156B28511AE106CFE9FFB4
:103A300007CFEAFFEE52080EEF6E06CFE9FF07CF81
:103A4000EAFF020EE926000EEA22300EEE6E040EA8
:103A5000ED6E06CFE9FF07CFEAFF8C0EEF6E120086
:103A6000286B1200D9CFE6FFE1CFD9FFE6520ECF87
:103A7000E9FF0FCFEAFFEF50400B01E0010EDF6ED0
:103A80000F010E75080E005D0BE132C45EFF0F01E1
:103A90005E5103E00F01100E02D00F01040E006F03
:103AA000150526E10ECFE9FF0FCFEAFF020EE9264A
:103AB000000EEA22380EEE6E040EED6E97DC020E5A
:103AC0000F01145D06E10ECFE9FF0FCFEAFF840E70
:103AD0000DD0DF5006E10ECFE9FF0FCFEAFFC80E91
:103AE00005D00ECFE9FF0FCFEAFF880EEF6E0FD0A3
:103AF0001DAF0CD02051211107E005D021CFFAFFD6
:103B00000F012051F96EFADF0F011D9F156BE55271
:103B1000E552E7CFD9FF120004013051600BE842B3
:103B2000E842E842E842E842000901E0120031516F
:103B30000C0A50E00B0A3FE00C0A31E0010A22E0D7
:103B40000B0A1EE0020A1CE0030A18E0080A10E053
:103B5000010A0CE00F0A08E0030A01E012000F015D
:103B6000188F080E006F120070EF1BF0F4EF1AF0C0
:103B70000F01010E166F0F0E176F0CD0CDEF1BF05B
:103B8000EBEF1DF034510F01166F176B020E162765
:103B90000F0E17231881010E196F188F12000F01D5
:103BA000188F04013451EA6A020FE96E0F0EEA22FF
:103BB00032C4EFFF1200000EE66EE66AE66EE66AB9
:103BC000020EE66EE66AC0EC14F0146E060EE15EBC
:103BD000145012001200D9CFE6FFE1CFD9FF050E35
:103BE000E1260401320510E130511F0B00090CE100
:103BF0000F01188F030E0401315D04E10F01010E66
:103C0000246F02D00F01246B0401325101E011D165
:103C100030511F0B020801E00CD134510F0B000989
:103C200001E107D134510F0B020801E202D1200E4D
:103C30000F01005D01E0FDD0188F040134BF16D0E4
:103C400034510F0BE96EEA6AD890E936EA36080E6D
:103C5000E9260F0EEA22EECFDEFFEDCFDDFF345175
:103C60000F0BEA6A2C0FE96E0F0E15D034510F0BB3
:103C7000E96EEA6AD890E936EA360E0EE9260F0EAA
:103C8000EA22EECFDEFFEDCFDDFF34510F0BEA6A03
:103C9000290FE96E0F0EEA22020EEFCFDBFFD9509B
:103CA000020FE96EDACFEAFFEF50010B03E1000EDD
:103CB000DF9401D0DF8434BF0BD034510F0BE96E99
:103CC000EA6AD890E936EA36080EE9260F0E0AD0DD
:103CD00034510F0BE96EEA6AD890E936EA360E0ED7
:103CE000E9260F0EEA22DECFEEFFDDCFEDFF030E59
:103CF000315D20E1DECFE9FFDDCFEAFFEF50800B41
:103D000011E034BF07D034510F0BEA6A2C0FE96E73
:103D10000F0E06D034510F0BEA6A290FE96E0F0E11
:103D2000EA22EF82840EDECFE9FFDDCFEAFFE85022
:103D3000EF127FD0DF74DECFE9FFDDCFEAFFEF5077
:103D4000800B1BE0DECFE9FFDDCFEAFFEF9EDECF89
:103D5000E9FFDDCFEAFFEF8C020EE66EE66ADECF0A
:103D6000E6FFDDCFE6FF050EE66EE66AC0EC14F076
:103D7000146E060EE15E145005D0DECFE9FFDDCFF4
:103D8000EAFFEF8CDF74D950020FE96EDACFEAFF59
:103D9000EF50020B07E1DECFE9FFDDCFEAFFEF5086
:103DA000800B2BE0040134BF07D034510F0BEA6ABB
:103DB0002C0FE96E0F0E06D034510F0BEA6A290F53
:103DC000E96E0F0EEA22EF923B0E146EDECFE9FF92
:103DD000DDCFEAFFE850EF16020EE66EE66ADECFB0
:103DE000E6FFDDCFE6FF050EE66EE66AC0EC14F0F6
:103DF000146E060EE15E145007D03B0EDECFE9FFD5
:103E0000DDCFEAFFE850EF16040134510F0B156ABD
:103E10004C0F146E0F0E1522030E14C0DBFF040EA0
:103E200015C0DBFF030EDBCFE9FF040EDBCFEAFF9B
:103E3000EF90050EE15C02E2E16AE552E16EE552C7
:063E4000E7CFD9FF1200DC
:0A3E4600D9CFE6FFE1CFD9FF030E4C
:103E5000E126FD0EDBCFE6FFFE0EDBCFE6FF05EC35
:103E60002EF0E552E5527DC1E6FF7EC1E6FF7FC13F
:103E7000E6FFFD0EDBCFE6FFFE0EDBCFE6FF6DECCF
:103E80002EF0146E050EE15E1450F3CFEAF4F4CF79
:103E9000EBF4020EDB68DE6ADD6ADECF14F0DDCF04
:103EA00015F0640EF66E640EF76E0800F550000112
:103EB00015AE02D0D89003D0145C000E15582CE239
:103EC000DECFE9FFDDCFEAFF030EEA02F3CFEAFF20
:103ED000E902F3CFE9FFF450EA26060EE926010EC7
:103EE000EA22EECFE6FFEECFE6FFEFCFE6FFEAC431
:103EF000E6FFEBC4E6FFC8EC2DF0146E050EE15EA4
:103F00001450000904E1020EDFCFDBFF05D0DF2AE9
:103F1000010EC3E3DB2AC1D7020EDBCF14F0143449
:103F200002E3000E27D0020EDBCFE9FFEA6AE9BE0A
:103F3000EA68D890E936EA362D0EE926010EEA2223
:103F4000EECF14F0EFCF15F0FB0EDBCFE6FFFC0E4B
:103F5000DBCFE6FFFD0EDBCFE6FFFE0EDBCFE6FF9D
:103F600004D015C0FAFF1450F96EFBDFE552E5529C
:103F7000E552E552146E030EE15C02E2E16AE5529D
:103F8000E16E1450E552E7CFD9FF1200D9CFE6FF1A
:103F9000E1CFD9FF030EE1267DC1E6FF7EC1E6FF3A
:103FA0007FC1E6FF000EE66EE66A6DEC2EF0146E41
:103FB000050EE15E1450F3CFEAF4F4CFEBF4040104
:103FC000F350F41002E1000E54D0020EDB68DE6AFA
:103FD000DD6ADECF14F0DDCF15F0650EF66E640EEF
:103FE000F76E0800F550000115AE02D0D89003D04E
:103FF000145C000E15582CE2DECFE9FFDDCFEAFF9E
:10400000030EEA02F3CFEAFFE902F3CFE9FFF4502F
:10401000EA26470EE926010EEA22EECFE6FFEECFB2
:10402000E6FFEFCFE6FFEAC4E6FFEBC4E6FFC8EC2D
:104030002DF0146E050EE15E1450000904E1020E2D
:10404000DFCFDBFF05D0DF2A010EC3E3DB2AC1D7B8
:10405000020EDBCF14F014340BE2FB0EDBCFE9FFD2
:10406000FC0EDBCFEAFF020EDBCFEFFF010E01D02B
:10407000000E146E030EE15C02E2E16AE552E16EAD
:104080001450E552E7CFD9FF1200D9CFE6FF020E58
:10409000E552E7CFD9FF1200D9CFE6FF030EE55274
:1040A000E7CFD9FF1200D9CFE6FFE1CFD9FF7DC11D
:1040B000E6FF7EC1E6FF7FC1E6FF000EE66EE66A20
:1040C0006DEC2EF0146E050EE15E1450F3CFEAF4A1
:1040D000F4CFEBF40401F350F41002E1000E1ED112
:1040E00000C1E6FF01C1E6FF02C1E6FFEAC4E6FF48
:1040F000EBC4E6FFC8EC2DF0146E050EE15E145023
:10410000000901E0BBD0FB0EDBCFE9FFFC0EDBCFEB
:10411000EAFF640EEF6E7DC1E6FF7EC1E6FF7FC160
:10412000E6FF000EE66EE66A6DEC2EF0146E050EEC
:10413000E15E1450F3CFEAF4F4CFEBF40401F35052
:10414000F41022E0EAC4E6FFEBC4E6FFAEEC29F08F
:10415000E552E55206C0ECF407C0EDF408C0EEF4F9
:1041600009C0EFF40A0E0B6E0C6A0D6A0E6A68EC59
:104170002FF00650E66EFB0EDBCFE9FFFC0EDBCF27
:10418000EAFFE552E750EF6E010EE76EFB0EDBCF64
:10419000E9FFFC0EDBCFEAFFE750E926000EEA223A
:1041A000EF6A7DC1E6FF7EC1E6FF7FC1E6FFE66EF6
:1041B000E66A6DEC2EF0146E050EE15E1450F3CF3E
:1041C000EAF4F4CFEBF40401F350F41019E0EAC47C
:1041D000E6FFEBC4E6FFAEEC29F0E552E5520650EF
:1041E000E66E010EE76EFB0EDBCFE9FFFC0EDBCFC8
:1041F000EAFFE750E926000EEA22E552E750EF6EAB
:10420000020EE76EFB0EDBCFE9FFFC0EDBCFEAFF11
:10421000E750E926000EEA22EF6A7DC1E6FF7EC183
:10422000E6FF7FC1E6FFE66EE66A6DEC2EF0146EE7
:10423000050EE15E1450F3CFEAF4F4CFEBF4040181
:10424000F350F41019E0EAC4E6FFEBC4E6FFAEEC6D
:1042500029F0E552E5520650E66E020EE76EFB0EBF
:10426000DBCFE9FFFC0EDBCFEAFFE750E926000ECB
:10427000EA22E552E750EF6E060E50D0EAC4E6FFA0
:10428000EBC4E6FF53EC26F0E552E55206C0ECF431
:1042900007C0EDF408C0EEF409C0EFF4FB0EDBCF6D
:1042A000E9FFFC0EDBCFEAFF06C0EFFF7DC1E6FFB2
:1042B0007EC1E6FF7FC1E6FF000EE66EE66A6DECAA
:1042C0002EF0146E050EE15E1450F3CFEAF4F4CF35
:1042D000EBF40401F350F41002E1040E1FD0EAC421
:1042E000E6FFEBC4E6FFAEEC29F0E552E55206C06E
:1042F000ECF407C0EDF408C0EEF409C0EFF4010ED1
:10430000E76EFB0EDBCFE9FFFC0EDBCFEAFFE750E9
:10431000E926000EEA2206C0EFFF050EE552E7CFC0
:10432000D9FF1200D9CFE6FFE1CFD9FF7DC1E6FF6B
:104330007EC1E6FF7FC1E6FF000EE66EE66A6DEC29
:104340002EF0146E050EE15E1450F3CFEAF4F4CFB4
:10435000EBF40401F350F4102FE0EAC4E6FFEBC4E1
:10436000E6FF53EC26F0E552E55206C0ECF407C038
:10437000EDF408C0EEF409C0EFF4FB0EDBCFE9FF6B
:10438000FC0EDBCFEAFF06C0EFFF7DC1E6FF7EC17A
:10439000E6FF7FC1E6FF000EE66EE66A6DEC2EF0EA
:1043A000146E050EE15E1450F3CFEAF4F4CFEBF493
:1043B0000401F350F41002E1000E58D0EAC4E6FF05
:1043C000EBC4E6FF53EC26F0E552E55206C0ECF4F0
:1043D00007C0EDF408C0EEF409C0EFF4010EE76E7B
:1043E000FB0EDBCFE9FFFC0EDBCFEAFFE750E9264F
:1043F000000EEA2206C0EFFF7DC1E6FF7EC1E6FFA8
:104400007FC1E6FFE66EE66A6DEC2EF0146E050ED7
:10441000E15E1450F3CFEAF4F4CFEBF40401F3506F
:10442000F41005E1EC69ED6BEE6BEF6B10D0EAC4B4
:10443000E6FFEBC4E6FF53EC26F0E552E55206C07A
:10444000ECF407C0EDF408C0EEF409C0EFF4020E7E
:10445000E76EFB0EDBCFE9FFFC0EDBCFEAFFE75098
:10446000E926000EEA22ECC4EFFF070EE552E7CF83
:10447000D9FF1200D9CFE6FFE1CFD9FF7DC1E6FF1A
:104480007EC1E6FF7FC1E6FF000EE66EE66A6DECD8
:104490002EF0146E050EE15E1450F3CFEAF4F4CF63
:1044A000EBF40401F350F41002E1000E69D0EAC409
:1044B000E6FFEBC4E6FFF7DBE552E55206C0ECF49D
:1044C00007C0EDF408C0EEF409C0EFF407C014F023
:1044D00008C015F009C016F00001176A0F0E141677
:1044E000156A166A176AFB0EDBCFE9FFFC0EDBCFFD
:1044F000EAFF14C0EFFF010EE76EFB0EDBCFE9FF12
:10450000FC0EDBCFEAFFE750E926000EEA22ECC4FE
:10451000EFFF7DC1E6FF7EC1E6FF7FC1E6FFE66EED
:10452000E66A6DEC2EF0146E050EE15E1450F3CFCA
:10453000EAF4F4CFEBF40401F350F41002E1080EB6
:104540001FD0EAC4E6FFEBC4E6FFAEEC29F0E5526B
:10455000E55206C0ECF407C0EDF408C0EEF409C063
:10456000EFF4020EE76EFB0EDBCFE9FFFC0EDBCFB4
:10457000EAFFE750E926000EEA2206C0EFFF090E27
:10458000E552E7CFD9FF1200D9CFE6FFE1CFD9FF3F
:104590007DC1E6FF7EC1E6FF7FC1E6FF000EE66E4D
:1045A000E66A6DEC2EF0146E050EE15E1450F3CF4A
:1045B000EAF4F4CFEBF40401F350F41048E0EAC459
:1045C000E6FFEBC4E6FF6FDBE552E55206C0ECF414
:1045D00007C0EDF408C0EEF409C0EFF407C014F012
:1045E00008C015F009C016F00001176A0F0E141666
:1045F000156A166A176AFB0EDBCFE9FFFC0EDBCFEC
:10460000EAFF14C0EFFF010EE76EFB0EDBCFE9FF00
:10461000FC0EDBCFEAFFE750E926000EEA22ECC4ED
:10462000EFFF7DC1E6FF7EC1E6FF7FC1E6FFE66EDC
:10463000E66A6DEC2EF0146E050EE15E1450F3CFB9
:10464000EAF4F4CFEBF40401F350F41002E1000EAD
:1046500019D0EAC4E6FFEBC4E6FF25DBE552E552DC
:104660000650E66E020EE76EFB0EDBCFE9FFFC0E96
:10467000DBCFEAFFE750E926000EEA22E552E750D9
:10468000EF6E0B0EE552E7CFD9FF1200D9CFE6FF50
:10469000E1CFD9FF7DC1E6FF7EC1E6FF7FC1E6FF26
:1046A000000EE66EE66A6DEC2EF0146E050EE15E0D
:1046B0001450F3CFEAF4F4CFEBF40401F350F41008
:1046C00012E000C1E6FF01C1E6FF02C1E6FFEAC455
:1046D000E6FFEBC4E6FFC8EC2DF0146E050EE15EBC
:1046E0001450000902E0000EB8D0FB0EDBCFE9FF4A
:1046F000FC0EDBCFEAFF640EEF6E7DC1E6FF7EC1EC
:10470000E6FF7FC1E6FF000EE66EE66A6DEC2EF076
:10471000146E050EE15E1450F3CFEAF4F4CFEBF41F
:104720000401F350F41022E0EAC4E6FFEBC4E6FF14
:10473000AEEC29F0E552E55206C0ECF407C0EDF40A
:1047400008C0EEF409C0EFF40A0E0B6E0C6A0D6A95
:104750000E6A68EC2FF00650E66EFB0EDBCFE9FF29
:10476000FC0EDBCFEAFFE552E750EF6E010EE76E7D
:10477000FB0EDBCFE9FFFC0EDBCFEAFFE750E926BB
:10478000000EEA22EF6A7DC1E6FF7EC1E6FF7FC12F
:10479000E6FFE66EE66A6DEC2EF0146E050EE15E45
:1047A0001450F3CFEAF4F4CFEBF40401F350F41017
:1047B00019E0EAC4E6FFEBC4E6FFAEEC29F0E552EF
:1047C000E5520650E66E010EE76EFB0EDBCFE9FF09
:1047D000FC0EDBCFEAFFE750E926000EEA22E552A5
:1047E000E750EF6E020EE76EFB0EDBCFE9FFFC0E2B
:1047F000DBCFEAFFE750E926000EEA22680EEF6EF3
:104800007DC1E6FF7EC1E6FF7FC1E6FF000EE66EDA
:10481000E66A6DEC2EF0146E050EE15E1450F3CFD7
:10482000EAF4F4CFEBF40401F350F41015E0EAC419
:10483000E9FFEBC4EAFFEF506C080EE1020EE76EF1
:10484000FB0EDBCFE9FFFC0EDBCFEAFFE750E926EA
:10485000000EEA226C0EEF6E0C0EE552E7CFD9FF88
:104860001200D9CFE6FFE1CFD9FFFB0EDBCFE9FF86
:10487000FC0EDBCFEAFF140EEF6E7DC1E6FF7EC1BA
:10488000E6FF7FC1E6FF000EE66EE66A6DEC2EF0F5
:10489000146E050EE15E1450F3CFEAF4F4CFEBF49E
:1048A0000401F350F4101CE0EAC4E6FFEBC4E6FF99
:1048B000AEEC29F0E552E55206C0ECF407C0EDF489
:1048C00008C0EEF409C0EFF404010650E66EFB0EDA
:1048D000DBCFE9FFFC0EDBCFEAFFE552E750EF6EDE
:1048E0000D0EE552E7CFD9FF1200D9CFE6FFE1CF99
:1048F000D9FF7DC1E6FF7EC1E6FF7FC1E6FF000E66
:10490000E66EE66A6DEC2EF0146E050EE15E145054
:10491000F3CFEAF4F4CFEBF40401F350F41029E000
:1049200003C1E6FF04C1E6FF05C1E6FFEAC4E6FFF6
:10493000EBC4E6FFC8EC2DF0146E050EE15E1450DA
:10494000000917E17DC1E6FF7EC1E6FF7FC1E6FFFA
:10495000000EE66EE66A6DEC2EF0146E050EE15E5A
:104960001450F3CFEAF4F4CFEBF40401F350F41055
:1049700002E1000E19D0EAC4E6FFEBC4E6FFAEEC9C
:1049800029F0E552E55206C0ECF407C0EDF408C08A
:10499000EEF409C0EFF4FB0EDBCFE9FFFC0EDBCF3A
:1049A000EAFF06C0EFFF0A0EE552E7CFD9FF12007B
:1049B000D9CFE6FFE1CFD9FF030EE1267DC1E6FFA7
:1049C0007EC1E6FF7FC1E6FF000EE66EE66A6DEC93
:1049D0002EF0146E050EE15E1450F3CFEAF4F4CF1E
:1049E000EBF40401F350F41002E1000EAFD0020E1C
:1049F000DB68DE6ADD6ADECF14F0DDCF15F0650E10
:104A0000F66E640EF76E0800F550000115AE02D088
:104A1000D89003D0145C000E15582CE2DECFE9FFCD
:104A2000DDCFEAFF030EEA02F3CFEAFFE902F3CF9C
:104A3000E9FFF450EA26470EE926010EEA22EECFFE
:104A4000E6FFEECFE6FFEFCFE6FFEAC4E6FFEBC4FA
:104A5000E6FFC8EC2DF0146E050EE15E145000095F
:104A600004E1020EDFCFDBFF05D0DF2A010EC3E336
:104A7000DB2AC1D7020EDBCF14F0010EE76E14184B
:104A8000E8AE02D0143403D0E750D88014545DE26D
:104A9000FB0EDBCFE9FFFC0EDBCFEAFF020EDBCF24
:104AA000EFFF7DC1E6FF7EC1E6FF7FC1E6FF000E9E
:104AB000E66EE66A6DEC2EF0146E050EE15E1450A3
:104AC000F3CFEAF4F4CFEBF40401F350F4101DE15A
:104AD000020EDBCFF6FFF76AF6BEF768660EF62623
:104AE000640EF7220800F550E66E010EE76EFB0E2D
:104AF000DBCFE9FFFC0EDBCFEAFFE750E926000E33
:104B0000EA22E552E750EF6E1ED0EAC4E6FFEBC49E
:104B1000E6FFAEEC29F0E552E55206C0ECF407C022
:104B2000EDF408C0EEF409C0EFF4010EE76EFB0EE1
:104B3000DBCFE9FFFC0EDBCFEAFFE750E926000EF2
:104B4000EA2206C0EFFF0E0E01D0000E146E030E17
:104B5000E15C02E2E16AE552E16E1450E552E7CF12
:104B6000D9FF1200D9CFE6FFE1CFD9FF020EE1262F
:104B70007DC1E6FF7EC1E6FF7FC1E6FF000EE66E67
:104B8000E66A6DEC2EF0146E050EE15E1450F3CF64
:104B9000EAF4F4CFEBF40401F350F41060E0EAC45B
:104BA000E6FFEBC4E6FF7FD8E552E55206C0ECF421
:104BB00007C0EDF408C0EEF409C0EFF4FB0EDBCF44
:104BC000E9FFFC0EDBCFEAFF06C0EFFFDE6ADD6A1D
:104BD0007DC1E6FF7EC1E6FF7FC1E6FF000EE66E07
:104BE000E66A6DEC2EF0146E050EE15E1450F3CF04
:104BF000EAF4F4CFEBF40401F350F41029E0EAC432
:104C0000E6FFEBC4E6FF4FD8E552E55206C0ECF4F0
:104C100007C0EDF408C0EEF409C0EFF4D9CFE9FF06
:104C2000DACFEAFFEE2A000EED22EECF14F0EDCF40
:104C300015F0010E1426000E1522FB0EDB50142475
:104C4000E96EFC0EDB501520EA6EECC4EFFFC0D716
:104C5000D9CFE9FFDACFEAFFEE50ED1002E1000E06
:104C60000FD0010EE76EFB0EDBCFE9FFFC0EDBCFB2
:104C7000EAFFE750E926000EEA22DFCFEFFF0F0E32
:104C8000146E020EE15C02E2E16AE552E16E14503C
:104C9000E552E7CFD9FF1200D9CFE6FF100EE5525B
:104CA000E7CFD9FF1200D9CFE6FFE1CFD9FF060E3B
:104CB000E126DE6ADE6ADE6ADD6ADD52DD52040E5E
:104CC000DB6A050EDB6AFD0EDBCFE6FFFE0EDBCFF7
:104CD000E6FF05EC2EF0E552E552040EDBCF14F0B2
:104CE000050EDBCF15F0FD0EDB501424E96EFE0E31
:104CF000DB501520EA6EEF5001E1B1D0040EDBCF9E
:104D000014F0050EDBCF15F0FD0EDB501424E96E18
:104D1000FE0EDB501520EA6EEF50390846E3040E14
:104D2000DBCF17F0050EDBCF18F0FD0EDB5017249C
:104D3000E96EFE0EDB501820EA6EEFCF16F0300E53
:104D4000165C33E3D9CFE9FFDACFEAFF040EE76E52
:104D5000D890EF36010EEB36020EEB36030EEB3633
:104D6000E706F6E1040EDBCF18F0050EDBCF19F0F5
:104D7000FD0EDB501824E96EFE0EDB501920EA6EA2
:104D8000EF50D00F146E156A166A176AE850DE26C7
:104D90001550DE221650DE221750DD22DD52DD5284
:104DA000040EDB2A050E99E358D0040EDBCF14F075
:104DB000050EDBCF15F0FD0EDB501424E96EFE0E60
:104DC000DB501520EA6EEF50660849E3040EDBCF96
:104DD00017F0050EDBCF18F0FD0EDB501724E96E3F
:104DE000FE0EDB501820EA6EEFCF16F0610E165C57
:104DF00036E3D9CFE9FFDACFEAFF040EE76ED890A9
:104E0000EF36010EEB36020EEB36030EEB36E706FD
:104E1000F6E1040EDBCF18F0050EDBCF19F0FD0E26
:104E2000DB501824E96EFE0EDB501920EA6EEF50BD
:104E30009F0F0A0F146E156A166A176AE850DE266D
:104E40001550DE221650DE221750DD22DD52DD52D3
:104E5000040EDB2A050E01E240D7DB2A3ED7DECF67
:104E600006F0DECF07F0DECF08F0DDCF09F0DD522F
:104E7000DD52060EE15C02E2E16AE552E16EE552C6
:064E8000E7CFD9FF12008C
:0A4E8600040130511F0B010801E088
:104E900012003051600BE842E842E842E842E84242
:104EA000010801E01200345103E0340501E0120072
:104EB0003151220A31E0030A24E0010A15E0210AF7
:104EC0000DE0010A01E012000F01E20E166F040E60
:104ED000176F080E196F1A6B188121D00F01E20E9F
:104EE000166F040E176F1BD036C41EFF37C41FFF8A
:104EF0000F01CA0E1B6F040E1C6F206B216B1D8FE0
:104F000012000F01CA0E166F040E176F070E196FED
:104F10001A6BC10E186F120032C4DDF40F01188F26
:104F200012000401CA6B4B0ECB6FCC6BCD6BCE6BFA
:104F3000CF6B080ED06FD16B1A0EE66E010EE66EC7
:104F40001CEC17F0E552E5521E0EE66E020EE66E00
:104F50001CEC17F0E552E552400EE66E4A0EE66E86
:104F6000040EE66EE66A020EE66E53EC17F0146E5F
:104F7000050EE15E1450F3CFD9F4F4CFDAF4040156
:104F8000DB6BDC6BD26B1200D9CFE6FFE1CFD9FF30
:104F9000FD0EDBCF08F0FE0EDBCF09F0050E081882
:104FA00001E1095002E0000E30D0FB0EDBCF14F01F
:104FB000FC0EDBCF15F00401D951141816E1DA51BB
:104FC000151813E1400EE66E4A0EE66E040EE66E0C
:104FD000E66A020EE66E53EC17F0146E050EE15E03
:104FE0001450F3CFD9F4F4CFDAF4FB0EDBCF14F086
:104FF000FC0EDBCF15F00401DB51141805E1DC5188
:10500000151802E1D26BD76B010EE552E7CFD9FF3D
:105010001200D9CFE6FFE1CFD9FF0401D16BD951FE
:10502000DA1102E1000E08D0D9C4E9FFDAC4EAFFC0
:10503000EF50800B01E0010E000945E1FC0EDBCFD3
:1050400014F0D9C4E9FFDAC4EAFFEE52EF50D88079
:10505000145408E2D9C4E9FFDAC4EAFFEE52FC0EA8
:10506000EFCFDBFFD16BFC0EDB50D15D19E2D151EC
:10507000EA6A4A0FE96E040EEA22EF50E66ED15159
:10508000E76EFD0EDBCFE9FFFE0EDBCFEAFFE75058
:10509000E926000EEA22E552E750EF6ED12BE3D766
:1050A000400EE66E4A0EE66E040EE66EE66A020EEC
:1050B000E66E53EC17F0146E050EE15E1450F3CF5C
:1050C000D9F4F4CFDAF40401D151E552E7CFD9FF96
:1050D0001200D9CFE6FFE1CFD9FFA0980401D25149
:1050E0000CE1FD0EDBCFD3F4FE0EDBCFD4F4FC0ECF
:1050F000DBCFD7F4010ED86FD26FA088E552E7CF8F
:10510000D9FF1200D9CFE6FFE1CFD9FF030EE12688
:10511000A0980401D2512DE1DF6AFD0EDBCF08F02B
:10512000FE0EDBCF09F0DE5208C0DEFF09C0DDFF56
:10513000DD52DF2ADF50146E156AFF0E141802E1EB
:1051400015500BE0010EDBCFE9FFDB2A020EDBCFAF
:10515000EAFF01E3DB2AEF50ECE1FD0EDBCFD3F4F5
:10516000FE0EDBCFD4F4DFCFD7F40401010ED86FED
:10517000D26FA088030EE15C02E2E16AE552E16EC3
:10518000E552E7CFD9FF1200D9CFE6FFE1CFD9FF33
:10519000030EE126A0980401D2512EE1DF6AFD0E34
:1051A000DBCF08F0FE0EDBCF09F0DE5208C0DEFFD9
:1051B00009C0DDFFDD52DF2ADF50146E156AFF0ED5
:1051C000141802E115500CE0010EDBCFF6FFDB2ACC
:1051D000020EDBCFF7FF01E3DB2A0800F550EBE11D
:1051E000FD0EDBCFD3F4FE0EDBCFD4F4DFCFD7F44C
:1051F0000401D86B010ED26FA088030EE15C02E2BD
:10520000E16AE552E16EE552E7CFD9FF1200D9CF4E
:10521000E6FFE1CFD9FF020EE126A0980401DB51A1
:10522000DC1102E1000E08D0DBC4E9FFDCC4EAFFB8
:10523000EF50800B01E0010E000906E1030ED25D84
:1052400001E1D26BD25102E1A0887ED0020ED25D84
:1052500016E1E66A000EE66EE66A010EE66E020EE2
:10526000E66E53EC17F0146E050EE15E1450F3CFAA
:10527000DBF4F4CFDCF40401030ED26F64D0D2056A
:1052800062E1400E146E156AD751145C000E155879
:1052900003E2400EDF6E02D0D7C4DFFFDF50D75DE0
:1052A000D76F8A0ED56F040ED66F010EDFCFDBFFEE
:1052B000D85116E1010EDB5028E0D3C4F6FFD4C468
:1052C000F7FF0800F550D5C4E9FFD6C4EAFFEF6E3A
:1052D000D52B000ED623D32BD423010EDB06EAD721
:1052E000010EDB5012E0D3C4E9FFD4C4EAFFEF5053
:1052F000D5C4E9FFD6C4EAFFEF6ED52B000ED62346
:10530000D32BD423010EDB06EBD70401D75107E1E1
:10531000400EDF5C02E1020E01D0030ED26FDFCF40
:10532000E6FF8A0EE66E040EE66E010EE66E020ED3
:10533000E66E53EC17F0146E050EE15E1450F3CFD9
:10534000DBF4F4CFDCF4A088020EE15C02E2E16A57
:0C535000E552E16EE552E7CFD9FF1200F4
:04535C00FF0EE3CF8E
:10536000EAFFE552FF0EE3CFE9FFE552E66AE66A9F
:10537000E66AE66AD9CFE6FFDACFE6FFFA0EE12465
:10538000D96EFF0EE220DA6EE66AE66AE66AE66A3F
:10539000E66A200EEF5C06E0090EEF5C03E0EF66C4
:1053A00003D06BD0EE50F5D72D0EEF5C03E1FF0E6E
:1053B000E32A03D02B0EEF5C01E1EE502F0EEF64D9
:1053C00044D03A0EEF6041D0D890F50EE336F60E99
:1053D000E336F70EE336F80EE336FB0EDECFE3FFDF
:1053E000FC0EDECFE3FFFD0EDECFE3FFFE0EDDCFD2
:1053F000E3FFDD52DD52D890F50EE336F60EE336CC
:10540000F70EE336F80EE336D890F50EE336F60ED7
:10541000E336F70EE336F80EE336FB0EE350DE26F6
:10542000FC0EE350DE22FD0EE350DE22FE0EE350C2
:10543000DD22DD52DD52300EEE5CDE26000EDE2275
:10544000DE22DD22DD52DD52B9D7FF0EE3CFE8FFC9
:10545000E85213E0F50EE31EF60EE31EF70EE31E10
:10546000F80EE31EF50EE32A08E1F60EE32A05E145
:10547000F70EE32A02E1F80EE32AE552E552E5527F
:10548000E552E552D9CFE9FFDACFEAFFEECF06F0D9
:10549000EECF07F0EECF08F0EFCF09F0FF0EE3CF2D
:1054A000DAFFE552FF0EE3CFD9FFE552E552E552B0
:1054B0001200D9CFE6FFDACFE6FFFA0EE3CFD9FF2D
:1054C000FB0EE3CFDAFFFD0EE35209E72D0EDE6E91
:1054D000FC0EE31EE32AFD0ED8B4E306E31EE652FB
:1054E000E652E652FD0EE124E76EFF0EE220E46E86
:1054F000E652F70EE3CFE6FFF70EE3CFE6FFC9EC87
:105500002AF0F90EE124E96EFF0EE220EA6EB9EC12
:105510002AF00AE1B6EC2AF009E1B9EC2AF008E138
:10552000B6EC2AF007E108D0C4EC2AF0BFEC2AF070
:10553000C4EC2AF0BFEC2AF0C4EC2AF0DE6AF90EC3
:10554000E126FF0EE222FF0EE3CFDAFFE552FF0E67
:10555000E3CFD9FFE552FC0EE124E96EFF0EE22015
:10556000EA6EEECFF3FFEFCFF4FF1200EF380F0B30
:105570001200EF500F0B02E1EE52D8841200EF3808
:105580000F0B300FDE6E1200EE500F0B300FDE6E81
:105590001200FC0EE3CFE9FFFD0EE3CFEAFF100E91
:1055A000E66EEE6AEE6AEF6AD890FD0EE336FE0E06
:1055B000E336ED36ED36EF36FF0EE30609E0EAECB2
:1055C0002AF0EE52EAEC2AF0EE52EAEC2AF0EDD79D
:1055D000E56E1200030EEF24E8B6EF6E300EEF24F6
:1055E000E8BEEF6E000CD9CFE6FFDACFE6FFF80E8B
:1055F000E3CFD9FFF90EE3CFDAFFFD0EE35215E753
:105600002D0EDE6EFA0EE31EFB0EE31EFC0EE31EF5
:10561000FD0EE31EFA0EE32A08E1FB0EE32A05E184
:10562000FC0EE32A02E1FD0EE32AE652E652E652C0
:10563000E652E652FB0EE124E76EFF0EE220E46E36
:10564000E652F30EE3CFE6FFF30EE3CFE6FFF30EF1
:10565000E3CFE6FFF30EE3CFE6FF90EC2BF0F50E81
:10566000E124E96EFF0EE220EA6E7DEC2BF019E1F9
:1056700080EC2BF018E17DEC2BF017E180EC2BF0A7
:1056800016E17DEC2BF015E180EC2BF014E17DECC4
:105690002BF013E180EC2BF012E17DEC2BF011E10B
:1056A00012D086EC2BF08BEC2BF086EC2BF08BECF5
:1056B0002BF086EC2BF08BEC2BF086EC2BF08BECAC
:1056C0002BF086EC2BF08BEC2BF0DE6AF50EE1264E
:1056D000FF0EE222FF0EE3CFDAFFE552FF0EE3CF2B
:1056E000D9FFE552FA0EE124E96EFF0EE220EA6EE0
:1056F000EECFF3FFEFCFF4FF1200EF380F0B1200E5
:10570000EF500F0B02E1EE52D8841200EF380F0B6E
:10571000300FDE6E1200EE500F0B300FDE6E1200F7
:10572000FA0EE3CFE9FFFB0EE3CFEAFF200EE66EB1
:10573000EE6AEE6AEE6AEE6AEF6AD890FB0EE33626
:10574000FC0EE336FD0EE336FE0EE336ED36ED36A7
:10575000ED36ED36EF36FF0EE3060FE0BFEC2BF033
:10576000EE52BFEC2BF0EE52BFEC2BF0EE52BFEC42
:105770002BF0EE52BFEC2BF0E1D7E56E1200030EDA
:10578000EF24E8B6EF6E300EEF24E8BEEF6E000CAB
:1057900094889486949A8B9AC79E280EC66E180E8B
:1057A000C86EC56A9E961200D9CFE6FFE1CFD9FF39
:1057B000C750040B01E0010E146E1F0EC514141027
:1057C000F7E1C580C5B0FED7FE0EDBCFE6FF56EC95
:1057D00030F0E552C750040B01E0010E146E1F0EAD
:1057E000C5141410F7E1FD0EDBCFE6FF56EC30F0E8
:1057F000E552C750040B01E0010E146E1F0EC514D4
:105800001410F7E1C582C5B2FED7FE0EDB500109C8
:10581000E66E56EC30F0E552C750040B01E0010E85
:10582000146E1F0EC5141410F7E1FA0EDBCFE6FF5D
:10583000FB0EDBCFE6FFFC0EDBCFE6FF96EC30F095
:10584000E552E552E552C58AC588C5B8FED7C5847C
:10585000C5B4FED7E552E7CFD9FF1200D9CFE6FF96
:10586000E1CFD9FFC750040B01E0010E146E1F0EEB
:10587000C5141410F7E1C580C5B0FED7FE0EDBCF0E
:10588000E6FF56EC30F0E552C750040B01E0010E84
:10589000146E1F0EC5141410F7E1FD0EDBCFE6FFEA
:1058A00056EC30F0E552C750040B01E0010E146EC7
:1058B0001F0EC5141410F7E1FA0EDBCFF3FFDB0661
:1058C000F35000091AE0FB0EDBCFE9FFFC0EDBCF43
:1058D000EAFFEF50E66E56EC30F0E552C750040B8D
:1058E00001E0010E146E1F0EC5141410F7E1FB0E3B
:1058F000DB2AFC0EE1E3DB2ADFD7C584C5B4FED783
:10590000E552E7CFD9FF1200949A94889496939623
:10591000929A978E899A8A868B8A8B86800EC76E1A
:10592000100EC66EC69E9E961200D9CFE6FFE1CF3E
:10593000D9FFE652D950FD0FE96EFF0EDA20EA6E6C
:10594000EE52ED8A8B860000898A00000000DF6A33
:10595000DFCF14F00E0EE76E1418E8AE02D0E73475
:1059600002D0E750145C1BE2FE0EDB50200B02E07D
:105970008B8A01D08B9AD950FD0FE96EFF0EDA2089
:10598000EA6E010ED890EE36ED36E806FBE18B9616
:10599000000000008B8600000000DF2AD9D7C68AED
:1059A000C69E9E96FA0EDBCFF3FFDB06F35000098E
:1059B00011E0C968C7A0FED7FB0EDBCFE9FFFC0EE4
:1059C000DBCFEAFFC9CFEFFFFB0EDB2AFC0E01E3C2
:1059D000DB2AE8D7C69A8B8600000000899A8B8A5A
:1059E000E552E552E7CFD9FF1200D9CFE6FFE1CF6C
:1059F000D9FF020EE1268B860000898A0000000094
:105A0000010EDB6A010EDBCF14F00E0EE76E1418E8
:105A1000E8AE02D0E73402D0E750145C1CE2FE0E80
:105A2000DB50200B02E08B8A01D08B9AD950FD0FFE
:105A3000E96EFF0EDA20EA6E010ED890EE36ED36F2
:105A4000E806FBE18B96000000008B86000000005A
:105A5000010EDB2AD7D78B96FA0EDBCFF3FFDB06DE
:105A6000F35000092CE0FB0EDBCFE9FFFC0EDBCF8F
:105A7000EAFFEFCFDFFFFB0EDB2AFC0E01E3DB2AA0
:105A8000010EDB6A010EDBCF14F0080EE76E14186E
:105A9000E8AE02D0E73402D0E750145C0FE2DFAE8C
:105AA00002D08B8A01D08B9ADF9EDF468B86000066
:105AB000000000008B96010EDB2AE4D7CDD78B8641
:105AC00000000000899A8B8A020EE15C02E2E16A22
:0C5AD000E552E16EE552E7CFD9FF12006D
:045ADC00FE0EE3CF08
:105AE000E9FFFF0EE3CFEAFFE9CFF3FFEACFF4FFD0
:105AF000FB0EE35003E1FC0EE35009E0FB0EE3066E
:105B000002E2FC0EE306FD0EE350EE6EF1D712004A
:105B1000D9CFE6FFDACFE6FFFA0EE3CFD9FFFB0ECF
:105B2000E3CFDAFFFC0EE3CFE9FFFD0EE3CFEAFFA0
:105B3000E9CFF3FFEACFF4FFEE66FED7ED52DFCFF9
:105B4000EEFFDE66FCD7FF0EE3CFDAFFE552FF0E75
:105B5000E3CFD9FFE5521200FB0EE3CFF6FFFC0EB8
:105B6000E3CFF7FFFD0EE3CFF8FFFE0EE3CFE9FF33
:105B7000FF0EE3CFEAFFE9CFF3FFEACFF4FFEE66D3
:105B8000FED7ED520900F5CFEFFFEE66FBD712000E
:105B9000FB0EE3CFF6FFFC0EE3CFF7FFFD0EE3CFE6
:105BA000F8FFFE0EE3CFE9FFFF0EE3CFEAFF0900A7
:105BB000F550EF5C02E1EE66FAD71200FB0EE3CF80
:105BC000F6FFFC0EE3CFF7FFFD0EE3CFF8FFFE0E6E
:105BD000E3CFE9FFFF0EE3CFEAFFE9CFF3FFEACF20
:105BE000F4FF0900F5CFEFFFEE66FBD71200FE0EC3
:105BF000E3CFE9FFFF0EE3CFEAFFF36AF46AEE5268
:105C000003E0F34AF42AFBD71200FE0EE3CFE9FFCC
:105C1000FF0EE3CFEAFFE9CFF3FFEACFF4FF410E37
:105C2000EF5C05E65B0EEF5C02E7200EEF12EE5232
:105C3000F6E11200FE0EE3CFE9FFFF0EE3CFEAFF2D
:105C4000FD0EE350EF5C05E0EE66FAD7F36AF46A06
:105C500004D0E9CFF3FFEACFF4FF1200FE0EE3CF4A
:105C6000E9FFFF0EE3CFEAFFEF5017E0FB0EE3CFB3
:105C7000F6FFFC0EE3CFF7FFFD0EE3CFF8FF0900C0
:105C8000F55003E0EF5CFBE103D0EC5006E0EED70B
:105C9000E9CFF3FFEACFF4FF1200F36AF46A1200CF
:105CA000FE0EE3CFE9FFFF0EE3CFEAFFF36AF46AEB
:105CB000EF5012E0FB0EE3CFF6FFFC0EE3CFF7FF51
:105CC000FD0EE3CFF8FF0900F55006E0EF5CFBE1C5
:0A5CD000F34AF42AEC50EEE1120052
:065CDA00D9CFE6FFDACF8E
:105CE000E6FFE1CFD9FFE2CFDAFFE652E65273D802
:105CF000EE50ED1006E1FC0EF0C4DBFFFD0EF1C42A
:105D0000DBFF70D8FC0EDBCFE6FFFD0EDBCFE6FF3E
:105D100050EC2EF0166E050EE15C02E2E16AE552EF
:105D2000E16E1650F3CF14F0F4CF15F054D8F350C1
:105D3000EE261550ED2260D8EF5003E1F36AF46AC5
:105D400042D0FC0EDBCFDEFFDBCFDDFF4BD8DECF5A
:105D5000E6FFDDCFE6FF2EEC2EF0146E050EE15CC3
:105D600002E2E16AE552E16E1450FC0EF3CFDBFF74
:105D7000FD0EF4CFDBFF2FD8EE50ED100FE1E66AF9
:105D8000DECFE6FFDDCFE6FF1AEC2EF0E552E5525E
:105D9000E552F3CFF0F4F4CFF1F40DD02DD8EF6A43
:105DA000FC0EDBCFF0F4FD0EDBCFF1F4010E0401AD
:105DB000F027000EF123DECF14F0DDCF15F014C074
:105DC000F3FF15C0F4FFE552E552E552E5CFDAFFE7
:105DD000E7CFD9FF1200D950FC0FE96EFF0EDA2091
:105DE000EA6E1200F90EDBCFE6FFFA0EDBCFE6FF1C
:105DF000FB0EDBCFE6FF1200FC0EDBCFE9FFFD0E52
:065E0000DBCFEAFF1200F7
:0A5E06001201000202000008D80497
:105E10000A0000010102000109024300020100C062
:105E200032090400000102020100052400100104EF
:105E30002402020524060001052401000107058152
:105E40000308000209040100020A0000000705021D
:105E500002400000070582024000000403090434E8
:105E6000034D006900630072006F00630068006901
:105E7000007000200054006500630068006E006F31
:105E8000006C006F0067007900200049006E00631D
:105E9000002E00340343004400430020005200530E
:105EA000002D00320033003200200045006D0075E7
:105EB000006C006100740069006F006E00200044F7
:0F5EC0000065006D006F00185E5B5E5F5E935EB5
:105ED000006AE86A0EAE75EF2FF00B6C0C1E0D1EFB
:105EE0000E1E0C220D220E22001E09AE80EF2FF096
:105EF000066C071E081E091E072208220922001E22
:105F000009EC31F009BE97EF2FF000AE000C066CE3
:105F1000071E081E091EE86A072208220922026CD1
:105F2000031E041E051E032204220522000C00BECF
:105F300087EF2FF00188FF0C08C012F008500D0207
:105F4000F4CF07F0F3CF06F009500E02F4CF09F0BA
:105F5000F3CF08F00D02F3500726F4500822E86A48
:105F6000092212500E02F3500726F4500822E86A64
:045F70000922000CF6
:0C5F74002A0EF66E100EF76E000EF86E8E
:105F80000F010900F5503A6F0900F5503B6F03E12E
:105F90003A6701D03DD00900F550356F0900F55042
:105FA000366F0900F550376F09000900F550E96EAA
:105FB0000900F550EA6E090009000900F550386F34
:105FC0000900F550396F09000900F6CF3CFFF7CF03
:105FD0003DFFF8CF3EFF35CFF6FF36CFF7FF37CF87
:105FE000F8FF0F01385302E1395307E00900F5507B
:105FF000EE6E3807F8E23907F9D73CCFF6FF3DCF10
:10600000F7FF3ECFF8FF0F013A07000E3B5BBFD70B
:0260100012007C
:0E60120025303258002C000A000D00443130B9
:106020000A004430352F362F370A004430332F38DA
:106030000A002C006D6F6E00636D6400696673006A
:10604000707232007373706D007466740064616CFA
:1060500000746578007865780065646E007461721C
:106060000078617200646279006962720073617223
:1060700000636667006F7363006677007377006D77
:10608000770063006900617A007274006F77006FB7
:1060900000770072006E6F726D616C007374616ED8
:0C60A000646279007100660078797A0073
:0460AC00D9CFE6FF63
:1060B000DACFE6FFE1CFD9FFE2CFDAFFFD0EDB500A
:1060C000C96EC6AE02D0FF0E2BD00F0EC614080844
:1060D0000FE00F0EC6140B080BE0C6889EA6FED775
:1060E000C750040B03E1C750010B17E0000E18D096
:1060F0000F0EC614080804E00F0EC6140B0810E1BA
:10610000C7B0FED7C750040B01E0010E146E1F0E7E
:10611000C5141410F7E1C5AC02D0FE0E01D0000E7C
:0C612000E552E5CFDAFFE7CFD9FF12000F
:04612C00D9CFE6FFE2
:10613000DACFE6FFE1CFD9FFE2CFDAFFFB0EDBCF0C
:10614000F3FFDB06F350000925E025EC32F0E66EA4
:10615000FC0EDBCFE9FFDB2AFD0EDBCFEAFF01E31C
:10616000DB2AE552E750EF6EC5B6FED7A1A602D0F6
:10617000FF0E11D00F0EC614080804E00F0EC6144F
:106180000B08DCE1FB0EDB50D9E0C59AC588C5A839
:10619000D5D7FDD7000EE552E5CFDAFFE7CFD9FF1F
:0261A0001200EB
:0E61A20006500B02F3CF02F0F4CF03F00C0214
:1061B000F3500326000EF420046E06500D02F35037
:1061C0000426000EF420056E06500E02F35005263C
:1061D00007500B02F3500326F4500422000E052250
:1061E00007500C02F3500426F450052207500D020C
:1061F000F350052608500B02F3500426F4500522F4
:1062000008500C02F350052609500B02F3500526E6
:0262100012007A
:0E621200056A046A036A026A200EE76ED890DD
:106220000636073608360936023603360436053692
:106230000B50025C0C5003580D5004580E5005587A
:1062400009E30B50025E0C50035A0D50045A0E50D5
:0A625000055A062AE72EE4D71200D3
:06625A00D9CFE6FFDACF08
:10626000E6FFE1CFD9FFE2CFDAFFE652E652D650A1
:10627000DF6E010ED7CFDBFFDECF14F0DDCF15F0E0
:1062800014C0F3FF15C0F4FFE552E552E552E5CF27
:08629000DAFFE7CFD9FF12008D
:08629800D9CFE6FFDACFE6FFE3
:1062A000E1CFD9FFE2CFDAFFE652E652FC0EDBCFB8
:1062B000DEFFDBCFDDFF010EDB50D76EDF50D66E89
:1062C000E552E552E552E5CFDAFFE7CFD9FF1200FC
:1062D000D9CFE6FFDACFE6FFE1CFD9FFE2CFDAFF91
:1062E000FD0EDB507F0BD56ED76AD66AF294FD0E99
:1062F000DBAE02D0F28A01D0F29AD58EE552E5CF1C
:08630000DAFFE7CFD9FF12001C
:08630800D9CFE6FFDACFE6FF72
:10631000E1CFD9FFE2CFDAFFFD0EDB50FB0B766E4B
:10632000786AA496FD0EDBAE02D0A38601D0A396B8
:0E6330007684E552E5CFDAFFE7CFD9FF120001
:02633E00D9CFB5
:10634000E6FFDACFE6FFE1CFD9FFE2CFDAFFFD0EBD
:10635000DB50FB0BCA6ECC6A9E92FD0EDBAE02D008
:106360009D8201D09D92CA84E552E5CFDAFFE7CF46
:04637000D9FF12003F
:0C637400FF0EE3501D6EEF0E01D0F30E83
:10638000E76EE72EC1EF31F00C0E1C6EE76AE72EC8
:10639000C7EF31F01C2EC6EF31F01D2EBFEF31F0EC
:0263A0001200E9
:0E63A200056A046A100EE76ED89008360936B8
:1063B000043605360D50045C0E50055805E30D50AB
:0E63C000045E0E50055A082AE72EF0D7120090
:0263CE00956ACE
:1063D0008C6A98908F9093968A86939A8A9A9398CB
:1063E0008A989382F18A9384F188F18EF28EF28CEE
:0263F000120099
:0E63F200400EF36E00EE00F00F0E01D8120008
:10640000EA6002D0EE6AFCD7F350E9601200EE6A4F
:02641000FCD7B7
:0E6412001EEE00F02EEE00F0F86A019CBAECCF
:0E6420002FF03FEC32F0AFEC08F0FBD712008B
:02642E00056AFD
:10643000080EE76ED890093605360E50055C02E36B
:0A644000056E092AE72EF7D71200B7
:06644A000F0EC614080845
:1064500004E00F0EC6140B0801E1C586C7A0FED7E5
:04646000C95012000D
:0C6464000D1200010038040100000000CF
:0864700000000001010102011E
:06647800D59EF29A12000D
:02647E0012000A
:0264800000001A
:0E6482002B60002260001D60001B600019608E
:10649000001760001260003000900102001200122C
:1064A00000010002000200020000000100010001E2
:1064B00000020001000000000000000000000000D9
:0F64C000000000000000000000000000000000CD
:0164CF00A824
:1064D0006000A66000A460009C600095600093606E
:1064E000009160008F60008C600089600086600011
:1064F0008460008260007F60007C60008C3F8A4086
:106500009840A6402443744488458C466248EA4833
:10651000B049644B984C7960007560007160006D03
:1065200060006960006560006160005D6000596046
:10653000005560005160004D6000496000446000FB
:0F6540004060003C600038600034600032600052
:020000040001F9
:01FFF800AA5E
:01FFF900F710
:01FFFA000501
:01FFFB00FF06
:01FFFD00F70C
:00000001FF
